{
  "_format": "hh-sol-artifact-1",
  "contractName": "Aggregator",
  "sourceName": "contracts/Aggregator.sol",
  "abi": [
    {
      "inputs": [],
      "stateMutability": "nonpayable",
      "type": "constructor"
    },
    {
      "inputs": [
        {
          "internalType": "int256",
          "name": "errorCode",
          "type": "int256"
        }
      ],
      "name": "ActorError",
      "type": "error"
    },
    {
      "inputs": [],
      "name": "ActorNotFound",
      "type": "error"
    },
    {
      "inputs": [],
      "name": "FailToCallActor",
      "type": "error"
    },
    {
      "inputs": [
        {
          "internalType": "uint64",
          "name": "",
          "type": "uint64"
        }
      ],
      "name": "InvalidCodec",
      "type": "error"
    },
    {
      "inputs": [],
      "name": "InvalidResponseLength",
      "type": "error"
    },
    {
      "inputs": [
        {
          "internalType": "uint256",
          "name": "balance",
          "type": "uint256"
        },
        {
          "internalType": "uint256",
          "name": "value",
          "type": "uint256"
        }
      ],
      "name": "NotEnoughBalance",
      "type": "error"
    },
    {
      "anonymous": false,
      "inputs": [
        {
          "indexed": true,
          "internalType": "string",
          "name": "agentId",
          "type": "string"
        },
        {
          "indexed": true,
          "internalType": "address",
          "name": "payoutAddress",
          "type": "address"
        }
      ],
      "name": "AgentRegistered",
      "type": "event"
    },
    {
      "anonymous": false,
      "inputs": [
        {
          "indexed": true,
          "internalType": "string",
          "name": "requestContext",
          "type": "string"
        },
        {
          "indexed": false,
          "internalType": "string",
          "name": "reason",
          "type": "string"
        }
      ],
      "name": "AggregationError",
      "type": "event"
    },
    {
      "anonymous": false,
      "inputs": [
        {
          "indexed": true,
          "internalType": "string",
          "name": "requestContext",
          "type": "string"
        },
        {
          "indexed": true,
          "internalType": "string",
          "name": "cid",
          "type": "string"
        },
        {
          "indexed": false,
          "internalType": "uint64",
          "name": "dealId",
          "type": "uint64"
        },
        {
          "indexed": false,
          "internalType": "bool",
          "name": "isActive",
          "type": "bool"
        },
        {
          "indexed": false,
          "internalType": "int64",
          "name": "activatedEpoch",
          "type": "int64"
        },
        {
          "indexed": false,
          "internalType": "int64",
          "name": "terminatedEpoch",
          "type": "int64"
        }
      ],
      "name": "DealCheckResult",
      "type": "event"
    },
    {
      "anonymous": false,
      "inputs": [
        {
          "indexed": true,
          "internalType": "string",
          "name": "cid",
          "type": "string"
        },
        {
          "indexed": true,
          "internalType": "address",
          "name": "submitter",
          "type": "address"
        },
        {
          "indexed": true,
          "internalType": "uint64",
          "name": "dealId",
          "type": "uint64"
        }
      ],
      "name": "EvidenceRegistered",
      "type": "event"
    },
    {
      "anonymous": false,
      "inputs": [
        {
          "indexed": true,
          "internalType": "string",
          "name": "requestContext",
          "type": "string"
        },
        {
          "indexed": true,
          "internalType": "address",
          "name": "recipient",
          "type": "address"
        },
        {
          "indexed": false,
          "internalType": "string",
          "name": "reason",
          "type": "string"
        },
        {
          "indexed": false,
          "internalType": "string",
          "name": "evidenceCid",
          "type": "string"
        },
        {
          "indexed": false,
          "internalType": "uint256",
          "name": "amount",
          "type": "uint256"
        }
      ],
      "name": "RewardPaid",
      "type": "event"
    },
    {
      "anonymous": false,
      "inputs": [
        {
          "indexed": true,
          "internalType": "address",
          "name": "recipient",
          "type": "address"
        },
        {
          "indexed": false,
          "internalType": "string",
          "name": "reason",
          "type": "string"
        },
        {
          "indexed": false,
          "internalType": "uint256",
          "name": "amount",
          "type": "uint256"
        }
      ],
      "name": "RewardTransferFailed",
      "type": "event"
    },
    {
      "anonymous": false,
      "inputs": [
        {
          "indexed": true,
          "internalType": "string",
          "name": "requestContext",
          "type": "string"
        },
        {
          "indexed": false,
          "internalType": "string",
          "name": "finalVerdict",
          "type": "string"
        },
        {
          "indexed": false,
          "internalType": "uint8",
          "name": "finalConfidence",
          "type": "uint8"
        },
        {
          "indexed": false,
          "internalType": "string[]",
          "name": "evidenceCids",
          "type": "string[]"
        },
        {
          "indexed": false,
          "internalType": "uint256",
          "name": "submissionCount",
          "type": "uint256"
        }
      ],
      "name": "VerdictAggregated",
      "type": "event"
    },
    {
      "anonymous": false,
      "inputs": [
        {
          "indexed": true,
          "internalType": "string",
          "name": "requestContext",
          "type": "string"
        },
        {
          "indexed": false,
          "internalType": "string",
          "name": "agentId",
          "type": "string"
        },
        {
          "indexed": false,
          "internalType": "string",
          "name": "verdict",
          "type": "string"
        },
        {
          "indexed": false,
          "internalType": "uint8",
          "name": "confidence",
          "type": "uint8"
        },
        {
          "indexed": false,
          "internalType": "string",
          "name": "evidenceCid",
          "type": "string"
        }
      ],
      "name": "VerdictSubmitted",
      "type": "event"
    },
    {
      "inputs": [
        {
          "internalType": "string",
          "name": "",
          "type": "string"
        }
      ],
      "name": "agentRegistry",
      "outputs": [
        {
          "internalType": "address",
          "name": "",
          "type": "address"
        }
      ],
      "stateMutability": "view",
      "type": "function"
    },
    {
      "inputs": [
        {
          "internalType": "string",
          "name": "requestContext",
          "type": "string"
        }
      ],
      "name": "aggregateResults",
      "outputs": [],
      "stateMutability": "nonpayable",
      "type": "function"
    },
    {
      "inputs": [],
      "name": "depositFunds",
      "outputs": [],
      "stateMutability": "payable",
      "type": "function"
    },
    {
      "inputs": [
        {
          "internalType": "string",
          "name": "",
          "type": "string"
        }
      ],
      "name": "evidenceRegistry",
      "outputs": [
        {
          "internalType": "address",
          "name": "submitter",
          "type": "address"
        },
        {
          "internalType": "uint64",
          "name": "dealId",
          "type": "uint64"
        },
        {
          "internalType": "uint256",
          "name": "usageScore",
          "type": "uint256"
        },
        {
          "internalType": "bool",
          "name": "exists",
          "type": "bool"
        }
      ],
      "stateMutability": "view",
      "type": "function"
    },
    {
      "inputs": [
        {
          "internalType": "string",
          "name": "agentId",
          "type": "string"
        }
      ],
      "name": "getAgentAddress",
      "outputs": [
        {
          "internalType": "address",
          "name": "",
          "type": "address"
        }
      ],
      "stateMutability": "view",
      "type": "function"
    },
    {
      "inputs": [
        {
          "internalType": "string",
          "name": "requestContext",
          "type": "string"
        }
      ],
      "name": "getAggregatedVerdict",
      "outputs": [
        {
          "components": [
            {
              "internalType": "string",
              "name": "finalVerdict",
              "type": "string"
            },
            {
              "internalType": "uint8",
              "name": "finalConfidence",
              "type": "uint8"
            },
            {
              "internalType": "string[]",
              "name": "evidenceCids",
              "type": "string[]"
            },
            {
              "internalType": "address",
              "name": "aggregator",
              "type": "address"
            },
            {
              "internalType": "uint256",
              "name": "timestamp",
              "type": "uint256"
            },
            {
              "internalType": "uint256",
              "name": "submissionCount",
              "type": "uint256"
            },
            {
              "internalType": "bool",
              "name": "exists",
              "type": "bool"
            }
          ],
          "internalType": "struct Aggregator.AggregatedVerdict",
          "name": "",
          "type": "tuple"
        }
      ],
      "stateMutability": "view",
      "type": "function"
    },
    {
      "inputs": [
        {
          "internalType": "string",
          "name": "cid",
          "type": "string"
        }
      ],
      "name": "getEvidenceInfo",
      "outputs": [
        {
          "components": [
            {
              "internalType": "address",
              "name": "submitter",
              "type": "address"
            },
            {
              "internalType": "uint64",
              "name": "dealId",
              "type": "uint64"
            },
            {
              "internalType": "uint256",
              "name": "usageScore",
              "type": "uint256"
            },
            {
              "internalType": "bool",
              "name": "exists",
              "type": "bool"
            }
          ],
          "internalType": "struct Aggregator.EvidenceInfo",
          "name": "",
          "type": "tuple"
        }
      ],
      "stateMutability": "view",
      "type": "function"
    },
    {
      "inputs": [
        {
          "internalType": "string",
          "name": "requestContext",
          "type": "string"
        }
      ],
      "name": "getSubmissions",
      "outputs": [
        {
          "components": [
            {
              "internalType": "string",
              "name": "agentId",
              "type": "string"
            },
            {
              "internalType": "string",
              "name": "verdict",
              "type": "string"
            },
            {
              "internalType": "uint8",
              "name": "confidence",
              "type": "uint8"
            },
            {
              "internalType": "string",
              "name": "evidenceCid",
              "type": "string"
            }
          ],
          "internalType": "struct Aggregator.VerifierSubmission[]",
          "name": "",
          "type": "tuple[]"
        }
      ],
      "stateMutability": "view",
      "type": "function"
    },
    {
      "inputs": [],
      "name": "owner",
      "outputs": [
        {
          "internalType": "address",
          "name": "",
          "type": "address"
        }
      ],
      "stateMutability": "view",
      "type": "function"
    },
    {
      "inputs": [
        {
          "internalType": "string",
          "name": "agentId",
          "type": "string"
        },
        {
          "internalType": "address",
          "name": "payoutAddress",
          "type": "address"
        }
      ],
      "name": "registerAgent",
      "outputs": [],
      "stateMutability": "nonpayable",
      "type": "function"
    },
    {
      "inputs": [
        {
          "internalType": "string",
          "name": "cid",
          "type": "string"
        },
        {
          "internalType": "address",
          "name": "submitter",
          "type": "address"
        },
        {
          "internalType": "uint64",
          "name": "dealId",
          "type": "uint64"
        }
      ],
      "name": "registerEvidence",
      "outputs": [],
      "stateMutability": "nonpayable",
      "type": "function"
    },
    {
      "inputs": [
        {
          "internalType": "string",
          "name": "",
          "type": "string"
        },
        {
          "internalType": "uint256",
          "name": "",
          "type": "uint256"
        }
      ],
      "name": "submissions",
      "outputs": [
        {
          "internalType": "string",
          "name": "agentId",
          "type": "string"
        },
        {
          "internalType": "string",
          "name": "verdict",
          "type": "string"
        },
        {
          "internalType": "uint8",
          "name": "confidence",
          "type": "uint8"
        },
        {
          "internalType": "string",
          "name": "evidenceCid",
          "type": "string"
        }
      ],
      "stateMutability": "view",
      "type": "function"
    },
    {
      "inputs": [
        {
          "internalType": "string",
          "name": "requestContext",
          "type": "string"
        },
        {
          "internalType": "string",
          "name": "agentId",
          "type": "string"
        },
        {
          "internalType": "string",
          "name": "verdict",
          "type": "string"
        },
        {
          "internalType": "uint8",
          "name": "confidence",
          "type": "uint8"
        },
        {
          "internalType": "string",
          "name": "evidenceCid",
          "type": "string"
        }
      ],
      "name": "submitVerificationResult",
      "outputs": [],
      "stateMutability": "nonpayable",
      "type": "function"
    },
    {
      "inputs": [
        {
          "internalType": "string",
          "name": "",
          "type": "string"
        }
      ],
      "name": "verdicts",
      "outputs": [
        {
          "internalType": "string",
          "name": "finalVerdict",
          "type": "string"
        },
        {
          "internalType": "uint8",
          "name": "finalConfidence",
          "type": "uint8"
        },
        {
          "internalType": "address",
          "name": "aggregator",
          "type": "address"
        },
        {
          "internalType": "uint256",
          "name": "timestamp",
          "type": "uint256"
        },
        {
          "internalType": "uint256",
          "name": "submissionCount",
          "type": "uint256"
        },
        {
          "internalType": "bool",
          "name": "exists",
          "type": "bool"
        }
      ],
      "stateMutability": "view",
      "type": "function"
    },
    {
      "inputs": [
        {
          "internalType": "uint256",
          "name": "amount",
          "type": "uint256"
        }
      ],
      "name": "withdrawFunds",
      "outputs": [],
      "stateMutability": "nonpayable",
      "type": "function"
    },
    {
      "stateMutability": "payable",
      "type": "receive"
    }
  ],
  "bytecode": "0x608060405234801561001057600080fd5b50600080546001600160a01b031916331790556142bf806100326000396000f3fe6080604052600436106100ec5760003560e01c80638da5cb5b1161008a578063d174e8e811610059578063d174e8e81461030f578063e2c41dbc146103a8578063e425ee7a146103b0578063eb63b7ef146103e057600080fd5b80638da5cb5b146102275780639305fb5414610247578063ad55674e14610267578063cbf0c6ff146102a857600080fd5b8063155dd5ee116100c6578063155dd5ee1461017d578063221771841461019d5780634b236e42146101bd57806389cf4d30146101ef57600080fd5b8063011d844e146100f857806314d18f101461012e57806314ff136c1461015057600080fd5b366100f357005b600080fd5b34801561010457600080fd5b50610118610113366004613512565b610400565b6040516101259190613597565b60405180910390f35b34801561013a57600080fd5b5061014e61014936600461365b565b6106c8565b005b34801561015c57600080fd5b5061017061016b366004613512565b610ab3565b604051610125919061373b565b34801561018957600080fd5b5061014e6101983660046137ec565b610cfa565b3480156101a957600080fd5b5061014e6101b8366004613512565b610e2d565b3480156101c957600080fd5b506101dd6101d83660046138c8565b61118e565b604051610125969594939291906138fc565b3480156101fb57600080fd5b5061020f61020a366004613512565b611267565b6040516001600160a01b039091168152602001610125565b34801561023357600080fd5b5060005461020f906001600160a01b031681565b34801561025357600080fd5b5061014e610262366004613962565b61129c565b34801561027357600080fd5b5061020f6102823660046138c8565b80516020818301810180516004825292820191909301209152546001600160a01b031681565b3480156102b457600080fd5b506102c86102c3366004613512565b6113e1565b604051610125919081516001600160a01b031681526020808301516001600160401b0316908201526040808301519082015260609182015115159181019190915260800190565b34801561031b57600080fd5b5061037461032a3660046138c8565b80516020818301810180516003825292820191909301209152805460018201546002909201546001600160a01b03821692600160a01b9092046001600160401b0316919060ff1684565b604080516001600160a01b0390951685526001600160401b0390931660208501529183015215156060820152608001610125565b61014e611473565b3480156103bc57600080fd5b506103d06103cb3660046139b5565b61149f565b60405161012594939291906139f9565b3480156103ec57600080fd5b5061014e6103fb366004613a5b565b61169c565b61044e6040518060e0016040528060608152602001600060ff1681526020016060815260200160006001600160a01b0316815260200160008152602001600081526020016000151581525090565b60028383604051610460929190613ac1565b9081526040519081900360200190206006015460ff166104e75760405162461bcd60e51b815260206004820152603760248201527f41676772656761746f723a2056657264696374206e6f742079657420616767726044820152761959d85d195908199bdc881d1a1a5cc818dbdb9d195e1d604a1b60648201526084015b60405180910390fd5b600283836040516104f9929190613ac1565b90815260200160405180910390206040518060e001604052908160008201805461052290613ad1565b80601f016020809104026020016040519081016040528092919081815260200182805461054e90613ad1565b801561059b5780601f106105705761010080835404028352916020019161059b565b820191906000526020600020905b81548152906001019060200180831161057e57829003601f168201915b5050509183525050600182015460ff16602080830191909152600283018054604080518285028101850182528281529401939260009084015b828210156106805783829060005260206000200180546105f390613ad1565b80601f016020809104026020016040519081016040528092919081815260200182805461061f90613ad1565b801561066c5780601f106106415761010080835404028352916020019161066c565b820191906000526020600020905b81548152906001019060200180831161064f57829003601f168201915b5050505050815260200190600101906105d4565b5050509082525060038201546001600160a01b03166020820152600482015460408201526005820154606082015260069091015460ff16151560809091015290505b92915050565b876107215760405162461bcd60e51b8152602060048201526024808201527f41676772656761746f723a205265717565737420636f6e7465787420726571756044820152631a5c995960e21b60648201526084016104de565b60648360ff16111561078e5760405162461bcd60e51b815260206004820152603060248201527f41676772656761746f723a20436f6e666964656e6365206d757374206265206260448201526f065747765656e203020616e64203130360841b60648201526084016104de565b604080518082018252600981526814dd5c1c1bdc9d195960ba1b602090910152517f81284493d16497e2081a4f6c584442d3e89a3874e11267b116ba640c83f2656f906107de9087908790613ac1565b6040518091039020148061084a5750604080518082018252600c81526b10dbdb9d1c98591a58dd195960a21b602090910152517fc62d4f11c0db86c6b365c49a1c1324b3deb0c7c11a1a42b0a0267036f94e5d54906108409087908790613ac1565b6040518091039020145b806108a85750604080518082018252600781526613995d5d1c985b60ca1b602090910152517f2f2c91a98104d65d37d346e0355546e0bfdd503995e1c8556c13a521662c512f9061089e9087908790613ac1565b6040518091039020145b6108ff5760405162461bcd60e51b815260206004820152602260248201527f41676772656761746f723a20496e76616c6964207665726469637420737472696044820152616e6760f01b60648201526084016104de565b60018989604051610911929190613ac1565b9081526020016040518091039020604051806080016040528089898080601f016020809104026020016040519081016040528093929190818152602001838380828437600092019190915250505090825250604080516020601f8a018190048102820181019092528881529181019190899089908190840183828082843760009201919091525050509082525060ff861660208083019190915260408051601f870183900483028101830182528681529201919086908690819084018382808284376000920182905250939094525050835460018101855593815260209020825192936004020191829150610a069082613b5b565b5060208201516001820190610a1b9082613b5b565b50604082015160028201805460ff191660ff90921691909117905560608201516003820190610a4a9082613b5b565b5050508888604051610a5d929190613ac1565b60405180910390207f4b9535f4c435bfc60fff79740194ac7ace0b41ecca7d48bc80701351c5c77d0188888888888888604051610aa09796959493929190613c43565b60405180910390a2505050505050505050565b606060018383604051610ac7929190613ac1565b9081526020016040518091039020805480602002602001604051908101604052809291908181526020016000905b82821015610cee5783829060005260206000209060040201604051806080016040529081600082018054610b2890613ad1565b80601f0160208091040260200160405190810160405280929190818152602001828054610b5490613ad1565b8015610ba15780601f10610b7657610100808354040283529160200191610ba1565b820191906000526020600020905b815481529060010190602001808311610b8457829003601f168201915b50505050508152602001600182018054610bba90613ad1565b80601f0160208091040260200160405190810160405280929190818152602001828054610be690613ad1565b8015610c335780601f10610c0857610100808354040283529160200191610c33565b820191906000526020600020905b815481529060010190602001808311610c1657829003601f168201915b5050509183525050600282015460ff166020820152600382018054604090920191610c5d90613ad1565b80601f0160208091040260200160405190810160405280929190818152602001828054610c8990613ad1565b8015610cd65780601f10610cab57610100808354040283529160200191610cd6565b820191906000526020600020905b815481529060010190602001808311610cb957829003601f168201915b50505050508152505081526020019060010190610af5565b50505050905092915050565b6000546001600160a01b03163314610d245760405162461bcd60e51b81526004016104de90613c96565b47811115610d865760405162461bcd60e51b815260206004820152602960248201527f41676772656761746f723a20496e73756666696369656e7420636f6e74726163604482015268742062616c616e636560b81b60648201526084016104de565b600080546040516001600160a01b039091169083908381818185875af1925050503d8060008114610dd3576040519150601f19603f3d011682016040523d82523d6000602084013e610dd8565b606091505b5050905080610e295760405162461bcd60e51b815260206004820152601d60248201527f41676772656761746f723a205769746864726177616c206661696c656400000060448201526064016104de565b5050565b60028282604051610e3f929190613ac1565b9081526040519081900360200190206006015460ff1615610ec25760405162461bcd60e51b815260206004820152603760248201527f41676772656761746f723a205665726469637420616c726561647920616767726044820152761959d85d195908199bdc881d1a1a5cc818dbdb9d195e1d604a1b60648201526084016104de565b600060018383604051610ed6929190613ac1565b908152604051908190036020019020805490915080610f515760405162461bcd60e51b815260206004820152603160248201527f41676772656761746f723a204e6f207375626d697373696f6e7320666f756e6460448201527008199bdc881d1a1a5cc818dbdb9d195e1d607a1b60648201526084016104de565b6000806000610f608585611966565b925092509250600080610f7587878786611b7a565b915091506000610fbe8a8a8080601f0160208091040260200160405190810160405280939291908181526020018383808284376000920191909152508692508891506121139050565b90506000610fcd600247613d05565b90506000610fdc600283613d05565b90506000610fea8284613d19565b90506110318d8d8080601f0160208091040260200160405190810160405280939291908181526020018383808284376000920191909152508892508a91508690508561244f565b6040518060e001604052808a81526020018960ff168152602001858152602001336001600160a01b031681526020014281526020018b81526020016001151581525060028e8e604051611085929190613ac1565b908152604051908190036020019020815181906110a29082613b5b565b5060208281015160018301805460ff191660ff909216919091179055604083015180516110d592600285019201906133d7565b5060608201516003820180546001600160a01b0319166001600160a01b039092169190911790556080820151600482015560a0820151600582015560c0909101516006909101805460ff191691151591909117905560405161113a908e908e90613ac1565b60405180910390207f5dd37cbdaf5c4f7efad8a03e1b7971061fe2603c4fd495d533f588bb16e3d5bc8a8a878e6040516111779493929190613d2c565b60405180910390a250505050505050505050505050565b80516020818301810180516002825292820191909301209152805481906111b490613ad1565b80601f01602080910402602001604051908101604052809291908181526020018280546111e090613ad1565b801561122d5780601f106112025761010080835404028352916020019161122d565b820191906000526020600020905b81548152906001019060200180831161121057829003601f168201915b5050506001840154600385015460048601546005870154600690970154959660ff938416966001600160a01b039093169550909350911686565b60006004838360405161127b929190613ac1565b908152604051908190036020019020546001600160a01b0316905092915050565b816112f55760405162461bcd60e51b8152602060048201526024808201527f41676772656761746f723a204167656e742049442063616e6e6f7420626520656044820152636d70747960e01b60648201526084016104de565b6001600160a01b03811661135d5760405162461bcd60e51b815260206004820152602960248201527f41676772656761746f723a205061796f757420616464726573732063616e6e6f60448201526874206265207a65726f60b81b60648201526084016104de565b8060048484604051611370929190613ac1565b90815260405190819003602001812080546001600160a01b039384166001600160a01b0319909116179055908216906113ac9085908590613ac1565b604051908190038120907f984fb4a13631d655e3fba91cf874fdbe5caa9544e7200406ba7e387101c95a5490600090a3505050565b60408051608081018252600080825260208201819052818301819052606082015290516003906114149085908590613ac1565b908152604080516020928190038301812060808201835280546001600160a01b0381168352600160a01b90046001600160401b03169382019390935260018301549181019190915260029091015460ff16151560608201529392505050565b6000546001600160a01b0316331461149d5760405162461bcd60e51b81526004016104de90613c96565b565b815160208184018101805160018252928201918501919091209190528054829081106114ca57600080fd5b9060005260206000209060040201600091509150508060000180546114ee90613ad1565b80601f016020809104026020016040519081016040528092919081815260200182805461151a90613ad1565b80156115675780601f1061153c57610100808354040283529160200191611567565b820191906000526020600020905b81548152906001019060200180831161154a57829003601f168201915b50505050509080600101805461157c90613ad1565b80601f01602080910402602001604051908101604052809291908181526020018280546115a890613ad1565b80156115f55780601f106115ca576101008083540402835291602001916115f5565b820191906000526020600020905b8154815290600101906020018083116115d857829003601f168201915b5050506002840154600385018054949560ff90921694919350915061161990613ad1565b80601f016020809104026020016040519081016040528092919081815260200182805461164590613ad1565b80156116925780601f1061166757610100808354040283529160200191611692565b820191906000526020600020905b81548152906001019060200180831161167557829003601f168201915b5050505050905084565b6000546001600160a01b031633146116c65760405162461bcd60e51b81526004016104de90613c96565b826117135760405162461bcd60e51b815260206004820152601f60248201527f41676772656761746f723a204349442063616e6e6f7420626520656d7074790060448201526064016104de565b6001600160a01b03821661177e5760405162461bcd60e51b815260206004820152602c60248201527f41676772656761746f723a205375626d6974746572206164647265737320636160448201526b6e6e6f74206265207a65726f60a01b60648201526084016104de565b806001600160401b03166000036117e25760405162461bcd60e51b815260206004820152602260248201527f41676772656761746f723a204465616c2049442063616e6e6f74206265207a65604482015261726f60f01b60648201526084016104de565b600384846040516117f4929190613ac1565b9081526040519081900360200190206002015460ff161561186b5760405162461bcd60e51b815260206004820152602b60248201527f41676772656761746f723a2045766964656e63652043494420616c726561647960448201526a081c9959da5cdd195c995960aa1b60648201526084016104de565b604080516080810182526001600160a01b03841681526001600160401b03831660208201526000818301526001606082015290516003906118af9087908790613ac1565b908152604080516020928190038301812084518154948601516001600160a01b039182166001600160e01b031990961695909517600160a01b6001600160401b03968716021782559285015160018201556060909401516002909401805460ff19169415159490941790935590831691908416906119309087908790613ac1565b604051908190038120907f1cbb97325869e00f949eef8b78bfa1fb2bf927ff05983b57ee7adab29daf9e7a90600090a450505050565b606060008060008060008060005b88811015611a9b5760008a828154811061199057611990613db1565b906000526020600020906004020190506040518060400160405280600981526020016814dd5c1c1bdc9d195960ba1b81525080519060200120816001016040516119da9190613dc7565b604051809103902003611a0e57856119f181613e3d565b6002830154909750611a07915060ff1685613e56565b9350611a92565b604080518082018252600c81526b10dbdb9d1c98591a58dd195960a21b602090910152517fc62d4f11c0db86c6b365c49a1c1324b3deb0c7c11a1a42b0a0267036f94e5d5490611a62906001840190613dc7565b604051809103902003611a925784611a7981613e3d565b6002830154909650611a8f915060ff1684613e56565b92505b50600101611974565b506000611aa960028a613d05565b611ab4906001613e56565b9050808510611afa5760408051808201909152600881526715995c9a599a595960c21b602082015297508415611af157611aee8584613d05565b96505b60019550611b6d565b808410611b4057604080518082019091526016815275466c61676765643a20436f6e747261646963746f727960501b602082015297508315611af157611aee8483613d05565b604051806040016040528060098152602001682ab731b2b93a30b4b760b91b815250975060009650600095505b50505050505b9250925092565b60608082611be3576040805160008082526020820190925290611bad565b6060815260200190600190039081611b985790505b506040805160008082526020820190925290611bd9565b6060815260200190600190039081611bc45790505b509150915061210a565b6000856001600160401b03811115611bfd57611bfd613805565b604051908082528060200260200182016040528015611c3057816020015b6060815260200190600190039081611c1b5790505b509050600080876001600160401b03811115611c4e57611c4e613805565b604051908082528060200260200182016040528015611c8157816020015b6060815260200190600190039081611c6c5790505b50604080516020808201835260008083528351808501909452600884526715995c9a599a595960c21b938201939093528a51908b012092935090917f0f898f6ded3c49a8895be5d2bf6bc1c99c127cd9679c112c1302a55b74d14e5601611d08575060408051808201909152600981526814dd5c1c1bdc9d195960ba1b6020820152611d87565b604080518082019091526016815275466c61676765643a20436f6e747261646963746f727960501b6020918201528951908a01207f7a7b6ca67ae9722136de1bd6722c3d1b0307cf0a95157f79120b96f0f72ddc4b01611d87575060408051808201909152600c81526b10dbdb9d1c98591a58dd195960a21b60208201525b805115611fd2578051602082012060005b8b811015611fcf57818d8281548110611db357611db3613db1565b9060005260206000209060040201600101604051611dd19190613dc7565b604051809103902003611fc7578c8181548110611df057611df0613db1565b90600052602060002090600402016000018054611e0c90613ad1565b80601f0160208091040260200160405190810160405280929190818152602001828054611e3890613ad1565b8015611e855780601f10611e5a57610100808354040283529160200191611e85565b820191906000526020600020905b815481529060010190602001808311611e6857829003601f168201915b5050505050878780611e9690613e3d565b985081518110611ea857611ea8613db1565b602002602001018190525060008d8281548110611ec757611ec7613db1565b90600052602060002090600402016003018054611ee390613ad1565b80601f0160208091040260200160405190810160405280929190818152602001828054611f0f90613ad1565b8015611f5c5780601f10611f3157610100808354040283529160200191611f5c565b820191906000526020600020905b815481529060010190602001808311611f3f57829003601f168201915b5050505050905060008151118015611f965750600381604051611f7f9190613e69565b9081526040519081900360200190206002015460ff165b15611fc557808686611fa781613e3d565b975081518110611fb957611fb9613db1565b60200260200101819052505b505b600101611d98565b50505b836001600160401b03811115611fea57611fea613805565b60405190808252806020026020018201604052801561201d57816020015b60608152602001906001900390816120085790505b50965060005b8481101561206a5785818151811061203d5761203d613db1565b602002602001015188828151811061205757612057613db1565b6020908102919091010152600101612023565b50816001600160401b0381111561208357612083613805565b6040519080825280602002602001820160405280156120b657816020015b60608152602001906001900390816120a15790505b50955060005b82811015612103578381815181106120d6576120d6613db1565b60200260200101518782815181106120f0576120f0613db1565b60209081029190910101526001016120bc565b5050505050505b94509492505050565b8151606090821580612123575080155b1561215c576040805160008082526020820190925290612153565b606081526020019060019003908161213e5790505b50915050612448565b6000816001600160401b0381111561217657612176613805565b6040519080825280602002602001820160405280156121a957816020015b60608152602001906001900390816121945790505b5090506000805b838110156123aa5760008782815181106121cc576121cc613db1565b6020026020010151905060006003826040516121e89190613e69565b90815260405190819003602001902080549091506001600160401b03600160a01b90910416156123a057805460009061223090600160a01b90046001600160401b0316612885565b80516020820151919250906000600019600784900b13801561225657508160070b600019145b9050856040516122669190613e69565b60405180910390208e60405161227c9190613e69565b6040805191829003822088546001600160401b03600160a01b9091041683528415156020840152600787810b8484015286900b6060840152905190917f3ec874e2f9a9781b58e544520cf996e590cd945eb54374f274c64abfde278279919081900360800190a3801561239b576000805b898110156123345787805190602001208b828151811061230f5761230f613db1565b6020026020010151805190602001200361232c5760019150612334565b6001016122ed565b508061239957868a8a61234681613e3d565b9b508151811061235857612358613db1565b60200260200101819052506003876040516123739190613e69565b908152604051908190036020019020600101805490600061239383613e3d565b91905055505b505b505050505b50506001016121b0565b50806001600160401b038111156123c3576123c3613805565b6040519080825280602002602001820160405280156123f657816020015b60608152602001906001900390816123e15790505b50935060005b818110156124435782818151811061241657612416613db1565b602002602001015185828151811061243057612430613db1565b60209081029190910101526001016123fc565b505050505b9392505050565b8351835181158015906124625750600084115b1561267e5760006124738386613d05565b9050801561267c5760005b8381101561267a57600088828151811061249a5761249a613db1565b602002602001015190506003816040516124b49190613e69565b9081526040519081900360200190206002015460ff16156126715760006003826040516124e19190613e69565b908152604051908190036020019020546001600160a01b031690508015612604576000816001600160a01b03168560405160006040518083038185875af1925050503d806000811461254f576040519150601f19603f3d011682016040523d82523d6000602084013e612554565b606091505b5050905080156125bc57816001600160a01b03168c6040516125769190613e69565b60405180910390207ffb70f7ffe99ec17d2805dc3f15630324242fabbe261e483d2bfa417c11a2976e85886040516125af929190613e85565b60405180910390a36125fe565b816001600160a01b03167f374acff628e19dba73bdfb44b950ad07a6b5b0769c2b23c8fdcf774bcc59094c866040516125f59190613ed6565b60405180910390a25b5061266f565b8a6040516126129190613e69565b60405180910390207f92f595b6bdc1a753f086506ee9ee9c5b5bde2e7456e66dd6a791ad8d49bc59e68360405160200161264c9190613f13565b60408051601f198184030181529082905261266691613f64565b60405180910390a25b505b5060010161247e565b505b505b60008111801561268e5750600083115b1561287c57600061269f8285613d05565b9050801561287a5760005b828110156128785760008782815181106126c6576126c6613db1565b6020026020010151905060006004826040516126e29190613e69565b908152604051908190036020019020546001600160a01b031690508015612803576000816001600160a01b03168560405160006040518083038185875af1925050503d8060008114612750576040519150601f19603f3d011682016040523d82523d6000602084013e612755565b606091505b5050905080156127bb57816001600160a01b03168c6040516127779190613e69565b60405180910390207ffb70f7ffe99ec17d2805dc3f15630324242fabbe261e483d2bfa417c11a2976e876040516127ae9190613f77565b60405180910390a36127fd565b816001600160a01b03167f374acff628e19dba73bdfb44b950ad07a6b5b0769c2b23c8fdcf774bcc59094c866040516127f49190613fc5565b60405180910390a25b5061286e565b8a6040516128119190613e69565b60405180910390207f92f595b6bdc1a753f086506ee9ee9c5b5bde2e7456e66dd6a791ad8d49bc59e68360405160200161284b9190613ff4565b60408051601f198184030181529082905261286591613f64565b60405180910390a25b50506001016126aa565b505b505b50505050505050565b604080518082019091526000808252602082015260006128ad836001600160401b03166128da565b905060006128c76005639904f2ff60518560006001612912565b90506128d2816129ec565b949350505050565b606060006128f0836001600160401b0316612a50565b905060006128fd82612a9e565b90506129098185612abf565b6128d281612acb565b60606129256005607f60991b0184612b16565b6000806005607f60991b0188868661293e576000612941565b60015b8a8a8e60405160200161295996959493929190614046565b60408051601f198184030181529082905261297391613e69565b600060405180830381855af49150503d80600081146129ae576040519150601f19603f3d011682016040523d82523d6000602084013e6129b3565b606091505b5091509150816129d657604051638a7db5bf60e01b815260040160405180910390fd5b6129df81612b6a565b9998505050505050505050565b6040805180820190915260008082526020820152600080612a0d8482612c4d565b9250905060028114612a2157612a21614095565b612a2b8483612cce565b60079190910b84529150612a3f8483612cce565b5060070b6020840152509092915050565b600060178211612a6257506001919050565b60ff8211612a7257506002919050565b61ffff8211612a8357506003919050565b63ffffffff8211612a9657506005919050565b506009919050565b612aa661342d565b8051612ab29083612ce8565b5060006020820152919050565b610e2982600083612d5f565b60608160200151600014612b105760405162461bcd60e51b815260206004820152600c60248201526b24b73b30b634b21021a127a960a11b60448201526064016104de565b50515190565b4781811015612b4257604051634787a10360e11b815260048101829052602481018390526044016104de565b823f151580612b645760405163064d954b60e41b815260040160405180910390fd5b50505050565b6060600080600084806020019051810190612b8591906140ab565b919450925090506001600160401b038216612bbf57805115612bba57604051630e74990760e01b815260040160405180910390fd5b612c2b565b6001600160401b03821660511480612be057506001600160401b0382166071145b15612c07578051600003612bba57604051630e74990760e01b815260040160405180910390fd5b60405163f1f6bced60e01b81526001600160401b03831660048201526024016104de565b82156128d25760405163d4bb667160e01b8152600481018490526024016104de565b600080600080612c5d8686612e7d565b96509092506001600160401b0316905060ff8216600414612cc05760405162461bcd60e51b815260206004820152601f60248201527f696e76616c6964206d616a20286578706563746564204d616a4172726179290060448201526064016104de565b9250839150505b9250929050565b60008080612cdc8585613053565b90969095509350505050565b604080518082019091526060815260006020820152612d08602083614140565b15612d3057612d18602083614140565b612d23906020613d19565b612d2d9083613e56565b91505b602080840183905260405180855260008152908184010181811015612d5457600080fd5b604052509192915050565b6017816001600160401b031611612d85578251612b649060e0600585901b1683176130f0565b60ff816001600160401b031611612dc5578251612dad906018611fe0600586901b16176130f0565b508251612b64906001600160401b0383166001613159565b61ffff816001600160401b031611612e06578251612dee906019611fe0600586901b16176130f0565b508251612b64906001600160401b0383166002613159565b63ffffffff816001600160401b031611612e49578251612e3190601a611fe0600586901b16176130f0565b508251612b64906001600160401b0383166004613159565b8251612e6090601b611fe0600586901b16176130f0565b508251612b64906001600160401b0383166008613159565b505050565b600080600080612e8d86866131de565b9050612e9a600186613e56565b94506007600582901c16601f8216601c8110612f065760405162461bcd60e51b815260206004820152602560248201527f63616e6e6f742068616e646c6520686561646572732077697468206578747261604482015264203e20323760d81b60648201526084016104de565b60188160ff161015612f245790945060ff169250849150611b739050565b8060ff16601803612fa0576000612f3b89896131de565b9050612f48600189613e56565b975060188160ff161015612f8d5760405162461bcd60e51b815260206004820152600c60248201526b34b73b30b634b21031b137b960a11b60448201526064016104de565b9195505060ff169250849150611b739050565b8060ff16601903612fda576000612fb7898961322d565b9050612fc4600289613e56565b97509195505061ffff169250849150611b739050565b8060ff16601a03613016576000612ff18989613266565b9050612ffe600489613e56565b97509195505063ffffffff169250849150611b739050565b8060ff16601b1461302957613029614095565b6000613035898961329f565b9050613042600889613e56565b929990985091965090945050505050565b6000806000806130638686612e7d565b96509092506001600160401b0316905060ff821660011480613086575060ff8216155b612cc05760405162461bcd60e51b815260206004820152603560248201527f696e76616c6964206d616a20286578706563746564204d616a5369676e6564496044820152746e74206f72204d616a556e7369676e6564496e742960581b60648201526084016104de565b6040805180820190915260608152600060208201528251516000613115826001613e56565b9050846020015182106131365761313685613131836002614154565b6132d8565b845160208382010185815350805182111561314f578181525b5093949350505050565b604080518082019091526060815260006020820152835151600061317d8285613e56565b9050856020015181111561319a5761319a86613131836002614154565b600060016131aa8661010061424f565b6131b49190613d19565b905086518281018783198251161781525080518311156131d2578281525b50959695505050505050565b60006131eb826001613e56565b8351101561320b5760405162461bcd60e51b81526004016104de9061425b565b82828151811061321d5761321d613db1565b016020015160f81c905092915050565b600061323a826002613e56565b8351101561325a5760405162461bcd60e51b81526004016104de9061425b565b50016020015160f01c90565b6000613273826004613e56565b835110156132935760405162461bcd60e51b81526004016104de9061425b565b50016020015160e01c90565b60006132ac826008613e56565b835110156132cc5760405162461bcd60e51b81526004016104de9061425b565b50016020015160c01c90565b81516132e48383612ce8565b50612b64838260408051808201909152606081526000602082015261244883838451604080518082019091526060815260006020820152825182111561332957600080fd5b83515160006133388483613e56565b905085602001518111156133555761335586613131836002614154565b85518051838201602001916000918085111561336f578482525b505050602086015b602086106133af578051825261338e602083613e56565b915061339b602082613e56565b90506133a8602087613d19565b9550613377565b51815160001960208890036101000a0190811690199190911617905250849150509392505050565b82805482825590600052602060002090810192821561341d579160200282015b8281111561341d578251829061340d9082613b5b565b50916020019190600101906133f7565b50613429929150613462565b5090565b6040518060400160405280613455604051806040016040528060608152602001600081525090565b8152602001600081525090565b80821115613429576000613476828261347f565b50600101613462565b50805461348b90613ad1565b6000825580601f1061349b575050565b601f0160209004906000526020600020908101906134b991906134bc565b50565b5b8082111561342957600081556001016134bd565b60008083601f8401126134e357600080fd5b5081356001600160401b038111156134fa57600080fd5b602083019150836020828501011115612cc757600080fd5b6000806020838503121561352557600080fd5b82356001600160401b0381111561353b57600080fd5b612cdc858286016134d1565b60005b8381101561356257818101518382015260200161354a565b50506000910152565b60008151808452613583816020860160208601613547565b601f01601f19169290920160200192915050565b60006020808352835160e0828501526135b461010085018261356b565b905060ff828601511660408501526040850151601f19808684030160608701528282518085528585019150858160051b860101868501945060005b8281101561361b578487830301845261360982875161356b565b958801959388019391506001016135ef565b5060608a01516001600160a01b03811660808b0152965060808a015160a08a015260a08a015160c08a015260c08a015196506129df60e08a018815159052565b600080600080600080600080600060a08a8c03121561367957600080fd5b89356001600160401b038082111561369057600080fd5b61369c8d838e016134d1565b909b50995060208c01359150808211156136b557600080fd5b6136c18d838e016134d1565b909950975060408c01359150808211156136da57600080fd5b6136e68d838e016134d1565b909750955060608c0135915060ff8216821461370157600080fd5b90935060808b0135908082111561371757600080fd5b506137248c828d016134d1565b915080935050809150509295985092959850929598565b600060208083018184528085518083526040925060408601915060408160051b87010184880160005b838110156137de57603f1989840301855281516080815181865261378a8287018261356b565b915050888201518582038a8701526137a2828261356b565b91505060ff888301511688860152606080830151925085820381870152506137ca818361356b565b968901969450505090860190600101613764565b509098975050505050505050565b6000602082840312156137fe57600080fd5b5035919050565b634e487b7160e01b600052604160045260246000fd5b604051601f8201601f191681016001600160401b038111828210171561384357613843613805565b604052919050565b60006001600160401b0382111561386457613864613805565b50601f01601f191660200190565b600082601f83011261388357600080fd5b81356138966138918261384b565b61381b565b8181528460208386010111156138ab57600080fd5b816020850160208301376000918101602001919091529392505050565b6000602082840312156138da57600080fd5b81356001600160401b038111156138f057600080fd5b6128d284828501613872565b60c08152600061390f60c083018961356b565b60ff979097166020830152506001600160a01b0394909416604085015260608401929092526080830152151560a090910152919050565b80356001600160a01b038116811461395d57600080fd5b919050565b60008060006040848603121561397757600080fd5b83356001600160401b0381111561398d57600080fd5b613999868287016134d1565b90945092506139ac905060208501613946565b90509250925092565b600080604083850312156139c857600080fd5b82356001600160401b038111156139de57600080fd5b6139ea85828601613872565b95602094909401359450505050565b608081526000613a0c608083018761356b565b8281036020840152613a1e818761356b565b905060ff851660408401528281036060840152613a3b818561356b565b979650505050505050565b6001600160401b03811681146134b957600080fd5b60008060008060608587031215613a7157600080fd5b84356001600160401b03811115613a8757600080fd5b613a93878288016134d1565b9095509350613aa6905060208601613946565b91506040850135613ab681613a46565b939692955090935050565b8183823760009101908152919050565b600181811c90821680613ae557607f821691505b602082108103613b0557634e487b7160e01b600052602260045260246000fd5b50919050565b601f821115612e78576000816000526020600020601f850160051c81016020861015613b345750805b601f850160051c820191505b81811015613b5357828155600101613b40565b505050505050565b81516001600160401b03811115613b7457613b74613805565b613b8881613b828454613ad1565b84613b0b565b602080601f831160018114613bbd5760008415613ba55750858301515b600019600386901b1c1916600185901b178555613b53565b600085815260208120601f198616915b82811015613bec57888601518255948401946001909101908401613bcd565b5085821015613c0a5787850151600019600388901b60f8161c191681555b5050505050600190811b01905550565b81835281816020850137506000828201602090810191909152601f909101601f19169091010190565b608081526000613c5760808301898b613c1a565b8281036020840152613c6a81888a613c1a565b905060ff861660408401528281036060840152613c88818587613c1a565b9a9950505050505050505050565b60208082526023908201527f41676772656761746f723a2043616c6c6572206973206e6f7420746865206f776040820152623732b960e91b606082015260800190565b634e487b7160e01b600052601260045260246000fd5b634e487b7160e01b600052601160045260246000fd5b600082613d1457613d14613cd9565b500490565b818103818111156106c2576106c2613cef565b608081526000613d3f608083018761356b565b602060ff87168185015283820360408501528186518084528284019150828160051b85010183890160005b83811015613d9857601f19878403018552613d8683835161356b565b94860194925090850190600101613d6a565b5050809550505050505082606083015295945050505050565b634e487b7160e01b600052603260045260246000fd5b6000808354613dd581613ad1565b60018281168015613ded5760018114613e0257613e31565b60ff1984168752821515830287019450613e31565b8760005260208060002060005b85811015613e285781548a820152908401908201613e0f565b50505082870194505b50929695505050505050565b600060018201613e4f57613e4f613cef565b5060010190565b808201808211156106c2576106c2613cef565b60008251613e7b818460208701613547565b9190910192915050565b606081526000613eb460608301600f81526e115d9a59195b98d94814995dd85c99608a1b602082015260400190565b8281036020840152613ec6818661356b565b9150508260408301529392505050565b604081526000613f0560408301600f81526e115d9a59195b98d94814995dd85c99608a1b602082015260400190565b905082602083015292915050565b7f496e76616c6964207375626d6974746572206164647265737320666f722043498152620221d160ed1b602082015260008251613f57816023850160208701613547565b9190910160230192915050565b602081526000612448602083018461356b565b606081526000613fa660608301600f81526e15995c9a599a595c8814995dd85c99608a1b602082015260400190565b8281036020840152600081526020810191505082604083015292915050565b604081526000613f0560408301600f81526e15995c9a599a595c8814995dd85c99608a1b602082015260400190565b7f4167656e74206e6f7420666f756e64206f7220696e76616c6964206164647265815263039b99d160e51b602082015260008251614039816024850160208701613547565b9190910160240192915050565b60006001600160401b0380891683528760208401528087166040840152808616606084015260c0608084015261407f60c084018661356b565b915080841660a084015250979650505050505050565b634e487b7160e01b600052600160045260246000fd5b6000806000606084860312156140c057600080fd5b8351925060208401516140d281613a46565b60408501519092506001600160401b038111156140ee57600080fd5b8401601f810186136140ff57600080fd5b805161410d6138918261384b565b81815287602083850101111561412257600080fd5b614133826020830160208601613547565b8093505050509250925092565b60008261414f5761414f613cd9565b500690565b80820281158282048414176106c2576106c2613cef565b600181815b808511156141a657816000190482111561418c5761418c613cef565b8085161561419957918102915b93841c9390800290614170565b509250929050565b6000826141bd575060016106c2565b816141ca575060006106c2565b81600181146141e057600281146141ea57614206565b60019150506106c2565b60ff8411156141fb576141fb613cef565b50506001821b6106c2565b5060208310610133831016604e8410600b8410161715614229575081810a6106c2565b614233838361416b565b806000190482111561424757614247613cef565b029392505050565b600061244883836141ae565b602080825260149082015273736c6963696e67206f7574206f662072616e676560601b60408201526060019056fea26469706673582212203e4bd07fe63bc0c43077ed2d591e7fa7b22c07c79328d4688f68d9c801d5ded864736f6c63430008180033",
  "linkReferences": {},
  "deployedLinkReferences": {}
}