{
  "_format": "hh-sol-artifact-1",
  "contractName": "AnswerStatement",
  "sourceName": "contracts/AnswerStatement.sol",
  "abi": [
    {
      "inputs": [
        {
          "internalType": "address",
          "name": "easAddress",
          "type": "address"
        },
        {
          "internalType": "address",
          "name": "schemaRegistryAddress",
          "type": "address"
        }
      ],
      "stateMutability": "nonpayable",
      "type": "constructor"
    },
    {
      "anonymous": false,
      "inputs": [
        {
          "indexed": true,
          "internalType": "bytes32",
          "name": "uid",
          "type": "bytes32"
        },
        {
          "indexed": true,
          "internalType": "address",
          "name": "agent",
          "type": "address"
        },
        {
          "indexed": false,
          "internalType": "string",
          "name": "requestContextRef",
          "type": "string"
        }
      ],
      "name": "AnswerSubmitted",
      "type": "event"
    },
    {
      "inputs": [],
      "name": "ATTESTATION_SCHEMA",
      "outputs": [
        {
          "internalType": "bytes32",
          "name": "",
          "type": "bytes32"
        }
      ],
      "stateMutability": "view",
      "type": "function"
    },
    {
      "inputs": [],
      "name": "IS_REVOCABLE",
      "outputs": [
        {
          "internalType": "bool",
          "name": "",
          "type": "bool"
        }
      ],
      "stateMutability": "view",
      "type": "function"
    },
    {
      "inputs": [],
      "name": "SCHEMA_ABI",
      "outputs": [
        {
          "internalType": "string",
          "name": "",
          "type": "string"
        }
      ],
      "stateMutability": "view",
      "type": "function"
    },
    {
      "inputs": [],
      "name": "_ATTESTATION_SCHEMA",
      "outputs": [
        {
          "internalType": "bytes32",
          "name": "",
          "type": "bytes32"
        }
      ],
      "stateMutability": "view",
      "type": "function"
    },
    {
      "inputs": [],
      "name": "_eas",
      "outputs": [
        {
          "internalType": "contract IEAS",
          "name": "",
          "type": "address"
        }
      ],
      "stateMutability": "view",
      "type": "function"
    },
    {
      "inputs": [],
      "name": "_schemaRegistry",
      "outputs": [
        {
          "internalType": "contract ISchemaRegistry",
          "name": "",
          "type": "address"
        }
      ],
      "stateMutability": "view",
      "type": "function"
    },
    {
      "inputs": [
        {
          "components": [
            {
              "internalType": "bytes32",
              "name": "uid",
              "type": "bytes32"
            },
            {
              "internalType": "bytes32",
              "name": "schema",
              "type": "bytes32"
            },
            {
              "internalType": "uint64",
              "name": "time",
              "type": "uint64"
            },
            {
              "internalType": "uint64",
              "name": "expirationTime",
              "type": "uint64"
            },
            {
              "internalType": "uint64",
              "name": "revocationTime",
              "type": "uint64"
            },
            {
              "internalType": "bytes32",
              "name": "refUID",
              "type": "bytes32"
            },
            {
              "internalType": "address",
              "name": "recipient",
              "type": "address"
            },
            {
              "internalType": "address",
              "name": "attester",
              "type": "address"
            },
            {
              "internalType": "bool",
              "name": "revocable",
              "type": "bool"
            },
            {
              "internalType": "bytes",
              "name": "data",
              "type": "bytes"
            }
          ],
          "internalType": "struct Attestation",
          "name": "statement",
          "type": "tuple"
        },
        {
          "internalType": "bytes",
          "name": "",
          "type": "bytes"
        },
        {
          "internalType": "bytes32",
          "name": "",
          "type": "bytes32"
        }
      ],
      "name": "checkStatement",
      "outputs": [
        {
          "internalType": "bool",
          "name": "",
          "type": "bool"
        }
      ],
      "stateMutability": "view",
      "type": "function"
    },
    {
      "inputs": [],
      "name": "eas",
      "outputs": [
        {
          "internalType": "contract IEAS",
          "name": "",
          "type": "address"
        }
      ],
      "stateMutability": "view",
      "type": "function"
    },
    {
      "inputs": [],
      "name": "getDemandAbi",
      "outputs": [
        {
          "internalType": "string",
          "name": "",
          "type": "string"
        }
      ],
      "stateMutability": "pure",
      "type": "function"
    },
    {
      "inputs": [],
      "name": "getSchemaAbi",
      "outputs": [
        {
          "internalType": "string",
          "name": "",
          "type": "string"
        }
      ],
      "stateMutability": "pure",
      "type": "function"
    },
    {
      "inputs": [
        {
          "components": [
            {
              "internalType": "address",
              "name": "answeringAgent",
              "type": "address"
            },
            {
              "internalType": "string",
              "name": "requestContextRef",
              "type": "string"
            },
            {
              "internalType": "uint256",
              "name": "requestContextHash",
              "type": "uint256"
            },
            {
              "internalType": "uint256",
              "name": "kbContentHash",
              "type": "uint256"
            },
            {
              "internalType": "uint256",
              "name": "questionHash",
              "type": "uint256"
            },
            {
              "internalType": "uint256",
              "name": "answerHash",
              "type": "uint256"
            },
            {
              "internalType": "uint256",
              "name": "llmResponseHash",
              "type": "uint256"
            },
            {
              "internalType": "uint256",
              "name": "answeringAgentId",
              "type": "uint256"
            },
            {
              "internalType": "uint8",
              "name": "claimedVerdict",
              "type": "uint8"
            },
            {
              "internalType": "uint8",
              "name": "claimedConfidence",
              "type": "uint8"
            },
            {
              "internalType": "uint256[2]",
              "name": "proof_a",
              "type": "uint256[2]"
            },
            {
              "internalType": "uint256[2][2]",
              "name": "proof_b",
              "type": "uint256[2][2]"
            },
            {
              "internalType": "uint256[2]",
              "name": "proof_c",
              "type": "uint256[2]"
            },
            {
              "internalType": "bytes32",
              "name": "evidenceProposalId",
              "type": "bytes32"
            },
            {
              "internalType": "string",
              "name": "answerCID",
              "type": "string"
            },
            {
              "internalType": "string",
              "name": "evidenceDataCID",
              "type": "string"
            }
          ],
          "internalType": "struct AnswerResultData",
          "name": "data",
          "type": "tuple"
        },
        {
          "internalType": "bytes32",
          "name": "refUID",
          "type": "bytes32"
        }
      ],
      "name": "makeStatement",
      "outputs": [
        {
          "internalType": "bytes32",
          "name": "uid",
          "type": "bytes32"
        }
      ],
      "stateMutability": "nonpayable",
      "type": "function"
    }
  ],
  "bytecode": "0x60e080604052346102fc57604081610ef6803803809161001f8285610343565b8339810103126102fc5761003e602061003783610366565b9201610366565b6001600160a01b039182166080521660a0819052604051906101a082016001600160401b0381118382101761032d5760405261016582527f6164647265737320616e73776572696e674167656e742c737472696e6720726560208301527f7175657374436f6e746578745265662c75696e7432353620726571756573744360408301527f6f6e74657874486173682c75696e74323536206b62436f6e74656e744861736860608301527f2c75696e74323536207175657374696f6e486173682c75696e7432353620616e60808301527f73776572486173682c75696e74323536206c6c6d526573706f6e73654861736860a08301527f2c75696e7432353620616e73776572696e674167656e7449642c75696e74382060c08301527f636c61696d6564566572646963742c75696e743820636c61696d6564436f6e6660e08301527f6964656e63652c75696e743235365b325d2070726f6f665f612c75696e7432356101008301527f365b325d5b325d2070726f6f665f622c75696e743235365b325d2070726f6f666101208301527f5f632c627974657333322065766964656e636550726f706f73616c49642c73746101408301527f72696e6720616e737765724349442c737472696e672065766964656e63654461610160830152641d1850d25160da1b6101808301526040518092630c1af44f60e31b82526060600483015280519081606484015260005b8281106103155750509181600060848286838360209984010152836024830152836044830152601f801991011681010301925af1908115610309576000916102d2575b5060c052604051610b7b908161037b823960805181818161039d01526109f2015260a05181610581015260c0518181816102ef01528181610a390152610a630152f35b90506020813d602011610301575b816102ed60209383610343565b810103126102fc57513861028f565b600080fd5b3d91506102e0565b6040513d6000823e3d90fd5b6020828201810151608488840101528694500161024c565b634e487b7160e01b600052604160045260246000fd5b601f909101601f19168101906001600160401b0382119082101761032d57604052565b51906001600160a01b03821682036102fc5756fe608080604052600436101561001357600080fd5b60003560e01c9081631272ff8b146106015750806313da12b3146105e55780632083d47f146105b557806330f97eea14610566578063344bd2d9146105b55780635bf2f20d146105b05780636622a361146105b057806376182c8e1461056b5780638150864d14610566578063d9f2f482146100d95763f0bebf031461009857600080fd5b346100d45760003660031901126100d45760405160206100b88183610730565b600082526100d060405192828493845283019061099b565b0390f35b600080fd5b346100d45760403660031901126100d4576004356001600160401b0381116100d457806004016102a060031983360301126100d45761011781610ad0565b336001600160a01b0390911603610521576101af9161013582610ad0565b9060248101916101458385610ae4565b95909260ff6101576101048301610b16565b916101656101248201610b16565b9061017461026482018a610ae4565b9390928161018661028485018d610ae4565b98909a6040519e8f9b60018060a01b031660208d01526102a060408d01526102c08c0191610b24565b96604485013560608b0152606485013560808b0152608485013560a08b015260a485013560c08b015260c485013560e08b015260e48501356101008b0152166101208901521661014087015260406101448201610160880137610184810160006101a088015b600282106104fd575050509261026c94926102599261024486604061020461027a9c99016102208c01370135610260890152878303601f1901610280890152610b24565b848103601f19016102a086015291610b24565b03601f198101855284610730565b61028382610ad0565b926040519360c085018581106001600160401b038211176104e75760405260018060a01b03168452600060208501526000604085015260243560608501526080840152600060a084015260405160408101908082106001600160401b038311176104e7576020916040527f000000000000000000000000000000000000000000000000000000000000000081528181019485526040518095819263f17325e760e01b8352846004840152516024830152516040604483015260018060a01b0381511660648301526001600160401b03848201511660848301526040810151151560a4830152606081015160c483015260a061038e608083015160c060e486015261012485019061099b565b910151610104830152038160007f00000000000000000000000000000000000000000000000000000000000000006001600160a01b03165af19182156104db576000926104a6575b60209350827fa0f4f0ceb06af4e95be492e04e90039e53517bfaf84ef9d37216282abfab790d61047b60409460008087516104118982610730565b6009815268454d495454494e472160b81b8b820152885161045b8161044d8e82019463104c13eb60e21b86528f6024840152604483019061099b565b03601f198101835282610730565b51906a636f6e736f6c652e6c6f675afa5061047585610ad0565b94610ae4565b85518881526001600160a01b039095169491829161049d918a84019190610b24565b0390a351908152f35b91506020833d6020116104d3575b816104c160209383610730565b810103126100d45760209251916103d6565b3d91506104b4565b6040513d6000823e3d90fd5b634e487b7160e01b600052604160045260246000fd5b8293949596979850604081816001949581943701930191018b979695949392610215565b60405162461bcd60e51b815260206004820152601e60248201527f43616c6c6572206d75737420626520616e73776572696e67206167656e7400006044820152606490fd5b6109dc565b346100d45760003660031901126100d4576040517f00000000000000000000000000000000000000000000000000000000000000006001600160a01b03168152602090f35b610a21565b346100d45760003660031901126100d4576100d06105d16107cf565b60405191829160208352602083019061099b565b346100d45760003660031901126100d457602060405160008152f35b346100d45760603660031901126100d4576004356001600160401b0381116100d45761014060031982360301126100d45761014082018281106001600160401b038211176104e757604052806004013582526024810135602083015261066960448201610751565b604083015261067a60648201610751565b606083015261068b60848201610751565b608083015260a481013560a08301526106a660c48201610765565b60c08301526106b760e48201610765565b60e083015261010481013580151581036100d457610100830152610124810135906001600160401b0382116100d45760046106f59236920101610779565b6101208201526024356001600160401b0381116100d457602091610720610726923690600401610779565b50610a5c565b6040519015158152f35b90601f801991011681019081106001600160401b038211176104e757604052565b35906001600160401b03821682036100d457565b35906001600160a01b03821682036100d457565b81601f820112156100d4578035906001600160401b0382116104e757604051926107ad601f8401601f191660200185610730565b828452602083830101116100d457816000926020809301838601378301015290565b604051906107df6101a083610730565b6101658252641d1850d25160da1b610180837f6164647265737320616e73776572696e674167656e742c737472696e6720726560208201527f7175657374436f6e746578745265662c75696e7432353620726571756573744360408201527f6f6e74657874486173682c75696e74323536206b62436f6e74656e744861736860608201527f2c75696e74323536207175657374696f6e486173682c75696e7432353620616e60808201527f73776572486173682c75696e74323536206c6c6d526573706f6e73654861736860a08201527f2c75696e7432353620616e73776572696e674167656e7449642c75696e74382060c08201527f636c61696d6564566572646963742c75696e743820636c61696d6564436f6e6660e08201527f6964656e63652c75696e743235365b325d2070726f6f665f612c75696e7432356101008201527f365b325d5b325d2070726f6f665f622c75696e743235365b325d2070726f6f666101208201527f5f632c627974657333322065766964656e636550726f706f73616c49642c73746101408201527f72696e6720616e737765724349442c737472696e672065766964656e636544616101608201520152565b919082519283825260005b8481106109c7575050826000602080949584010152601f8019910116010190565b806020809284010151828286010152016109a6565b346100d45760003660031901126100d4576040517f00000000000000000000000000000000000000000000000000000000000000006001600160a01b03168152602090f35b346100d45760003660031901126100d45760206040517f00000000000000000000000000000000000000000000000000000000000000008152f35b60208101517f000000000000000000000000000000000000000000000000000000000000000003610aca576001600160401b03608082015116610aca57606001516001600160401b03168015159081610abf575b50610aba57600190565b600090565b905042101538610ab0565b50600090565b356001600160a01b03811681036100d45790565b903590601e19813603018212156100d457018035906001600160401b0382116100d4576020019181360383136100d457565b3560ff811681036100d45790565b908060209392818452848401376000828201840152601f01601f191601019056fea2646970667358221220a1e51d246d3e1dd6b8d37d92cce737316dad107c286dd0ed4dd02d555317ff7b64736f6c634300081c0033",
  "linkReferences": {},
  "deployedLinkReferences": {}
}