{
  "_format": "hh-sol-artifact-1",
  "contractName": "ERC20PaymentStatement",
  "sourceName": "contracts/ERC20PaymentStatement.sol",
  "abi": [
    {
      "inputs": [
        {
          "internalType": "address",
          "name": "easAddress",
          "type": "address"
        },
        {
          "internalType": "address",
          "name": "schemaRegistryAddress",
          "type": "address"
        }
      ],
      "stateMutability": "nonpayable",
      "type": "constructor"
    },
    {
      "inputs": [
        {
          "internalType": "address",
          "name": "token",
          "type": "address"
        }
      ],
      "name": "SafeERC20FailedOperation",
      "type": "error"
    },
    {
      "anonymous": false,
      "inputs": [
        {
          "indexed": true,
          "internalType": "bytes32",
          "name": "statementUID",
          "type": "bytes32"
        },
        {
          "indexed": true,
          "internalType": "bytes32",
          "name": "fulfillmentUID",
          "type": "bytes32"
        },
        {
          "indexed": true,
          "internalType": "address",
          "name": "collector",
          "type": "address"
        },
        {
          "indexed": false,
          "internalType": "uint256",
          "name": "amount",
          "type": "uint256"
        }
      ],
      "name": "PaymentCollected",
      "type": "event"
    },
    {
      "anonymous": false,
      "inputs": [
        {
          "indexed": true,
          "internalType": "bytes32",
          "name": "uid",
          "type": "bytes32"
        },
        {
          "indexed": true,
          "internalType": "address",
          "name": "buyer",
          "type": "address"
        }
      ],
      "name": "PaymentStatementCancelled",
      "type": "event"
    },
    {
      "anonymous": false,
      "inputs": [
        {
          "indexed": true,
          "internalType": "bytes32",
          "name": "uid",
          "type": "bytes32"
        },
        {
          "indexed": true,
          "internalType": "address",
          "name": "buyer",
          "type": "address"
        },
        {
          "indexed": false,
          "internalType": "address",
          "name": "token",
          "type": "address"
        },
        {
          "indexed": false,
          "internalType": "uint256",
          "name": "amount",
          "type": "uint256"
        },
        {
          "indexed": false,
          "internalType": "address",
          "name": "arbiter",
          "type": "address"
        }
      ],
      "name": "PaymentStatementCreated",
      "type": "event"
    },
    {
      "inputs": [],
      "name": "ATTESTATION_SCHEMA",
      "outputs": [
        {
          "internalType": "bytes32",
          "name": "",
          "type": "bytes32"
        }
      ],
      "stateMutability": "view",
      "type": "function"
    },
    {
      "inputs": [],
      "name": "DEMAND_ABI",
      "outputs": [
        {
          "internalType": "string",
          "name": "",
          "type": "string"
        }
      ],
      "stateMutability": "view",
      "type": "function"
    },
    {
      "inputs": [],
      "name": "IS_REVOCABLE",
      "outputs": [
        {
          "internalType": "bool",
          "name": "",
          "type": "bool"
        }
      ],
      "stateMutability": "view",
      "type": "function"
    },
    {
      "inputs": [],
      "name": "SCHEMA_ABI",
      "outputs": [
        {
          "internalType": "string",
          "name": "",
          "type": "string"
        }
      ],
      "stateMutability": "view",
      "type": "function"
    },
    {
      "inputs": [],
      "name": "_ATTESTATION_SCHEMA",
      "outputs": [
        {
          "internalType": "bytes32",
          "name": "",
          "type": "bytes32"
        }
      ],
      "stateMutability": "view",
      "type": "function"
    },
    {
      "inputs": [],
      "name": "_eas",
      "outputs": [
        {
          "internalType": "contract IEAS",
          "name": "",
          "type": "address"
        }
      ],
      "stateMutability": "view",
      "type": "function"
    },
    {
      "inputs": [],
      "name": "_schemaRegistry",
      "outputs": [
        {
          "internalType": "contract ISchemaRegistry",
          "name": "",
          "type": "address"
        }
      ],
      "stateMutability": "view",
      "type": "function"
    },
    {
      "inputs": [
        {
          "internalType": "bytes32",
          "name": "paymentUID",
          "type": "bytes32"
        }
      ],
      "name": "cancelStatement",
      "outputs": [],
      "stateMutability": "nonpayable",
      "type": "function"
    },
    {
      "inputs": [
        {
          "components": [
            {
              "internalType": "bytes32",
              "name": "uid",
              "type": "bytes32"
            },
            {
              "internalType": "bytes32",
              "name": "schema",
              "type": "bytes32"
            },
            {
              "internalType": "uint64",
              "name": "time",
              "type": "uint64"
            },
            {
              "internalType": "uint64",
              "name": "expirationTime",
              "type": "uint64"
            },
            {
              "internalType": "uint64",
              "name": "revocationTime",
              "type": "uint64"
            },
            {
              "internalType": "bytes32",
              "name": "refUID",
              "type": "bytes32"
            },
            {
              "internalType": "address",
              "name": "recipient",
              "type": "address"
            },
            {
              "internalType": "address",
              "name": "attester",
              "type": "address"
            },
            {
              "internalType": "bool",
              "name": "revocable",
              "type": "bool"
            },
            {
              "internalType": "bytes",
              "name": "data",
              "type": "bytes"
            }
          ],
          "internalType": "struct Attestation",
          "name": "statement",
          "type": "tuple"
        },
        {
          "internalType": "bytes",
          "name": "",
          "type": "bytes"
        },
        {
          "internalType": "bytes32",
          "name": "",
          "type": "bytes32"
        }
      ],
      "name": "checkStatement",
      "outputs": [
        {
          "internalType": "bool",
          "name": "",
          "type": "bool"
        }
      ],
      "stateMutability": "view",
      "type": "function"
    },
    {
      "inputs": [
        {
          "internalType": "bytes32",
          "name": "paymentUID",
          "type": "bytes32"
        },
        {
          "internalType": "bytes32",
          "name": "fulfillmentUID",
          "type": "bytes32"
        }
      ],
      "name": "collectPayment",
      "outputs": [],
      "stateMutability": "nonpayable",
      "type": "function"
    },
    {
      "inputs": [],
      "name": "eas",
      "outputs": [
        {
          "internalType": "contract IEAS",
          "name": "",
          "type": "address"
        }
      ],
      "stateMutability": "view",
      "type": "function"
    },
    {
      "inputs": [],
      "name": "getDemandAbi",
      "outputs": [
        {
          "internalType": "string",
          "name": "",
          "type": "string"
        }
      ],
      "stateMutability": "pure",
      "type": "function"
    },
    {
      "inputs": [],
      "name": "getSchemaAbi",
      "outputs": [
        {
          "internalType": "string",
          "name": "",
          "type": "string"
        }
      ],
      "stateMutability": "pure",
      "type": "function"
    },
    {
      "inputs": [
        {
          "internalType": "address",
          "name": "token",
          "type": "address"
        },
        {
          "internalType": "uint256",
          "name": "amount",
          "type": "uint256"
        },
        {
          "internalType": "address",
          "name": "arbiter",
          "type": "address"
        },
        {
          "internalType": "bytes",
          "name": "demand",
          "type": "bytes"
        }
      ],
      "name": "makeStatement",
      "outputs": [
        {
          "internalType": "bytes32",
          "name": "uid",
          "type": "bytes32"
        }
      ],
      "stateMutability": "payable",
      "type": "function"
    },
    {
      "inputs": [
        {
          "internalType": "bytes32",
          "name": "",
          "type": "bytes32"
        }
      ],
      "name": "usedStatements",
      "outputs": [
        {
          "internalType": "bool",
          "name": "",
          "type": "bool"
        }
      ],
      "stateMutability": "view",
      "type": "function"
    }
  ],
  "bytecode": "0x60e080604052346101d557604081611868803803809161001f828561021c565b8339810103126101d55761003e60206100378361023f565b920161023f565b6001600160a01b039182166080908152911660a08190526040519182016001600160401b0381118382101761020657604052605382527f616464726573732062757965722c6164647265737320746f6b656e2c75696e7460208301527f32353620616d6f756e742c6164647265737320617262697465722c627974657360408301527f2064656d616e642c626f6f6c206163746976650000000000000000000000000060608301526040518092630c1af44f60e31b82526060600483015280519081606484015260005b8281106101ee575050918160006084828683836020998401015283602483015260016044830152601f801991011681010301925af19081156101e2576000916101ab575b5060c052604051611614908161025482396080518181816103490152818161064e01528181610bc9015261113c015260a051816105c5015260c05181818161029c015281816106b401528181610c110152818161118301526114960152f35b90506020813d6020116101da575b816101c66020938361021c565b810103126101d557513861014c565b600080fd5b3d91506101b9565b6040513d6000823e3d90fd5b60208282018101516084888401015286945001610108565b634e487b7160e01b600052604160045260246000fd5b601f909101601f19168101906001600160401b0382119082101761020657604052565b51906001600160a01b03821682036101d55756fe608080604052600436101561001357600080fd5b600090813560e01c908163039b9bf614610b9f575080631272ff8b14610a7857806313da12b314610a5c5780632083d47f146105f957806330088bc91461061557806330f97eea146105aa578063344bd2d9146105f95780635bf2f20d146105f45780636622a361146105f457806376182c8e146105af5780638150864d146105aa5780639d6d33ba1461057c578063b72eef7014610118578063f0bebf03146100fc5763fdc5b3f4146100c657600080fd5b346100f957806003193601126100f9576100f56100e16111a6565b604051918291602083526020830190611101565b0390f35b80fd5b50346100f957806003193601126100f9576100f56100e16111a6565b5060803660031901126100f9576004356001600160a01b0381169081900361057857602435906044356001600160a01b0381169081900361057457606435926001600160401b0384116103f457366023850112156103f4578360040135936001600160401b0385116105705736602486830101116105705781156105365782156104f157836104505781340361040b5761025e905b604051906101ba82610f88565b33825261024760208301978789526101e560408501938785526060860192898452602436920161100c565b906080850191825260a0850193600185526040519a8b9660208089015260018060a01b03905116604088015260018060a01b03905116606087015251608086015260018060a01b0390511660a08501525160c080850152610100840190611101565b9051151560e083015203601f198101865285610fa3565b6040519361026b85610f88565b3385528560208601526001604086015285606086015260808501528460a0850152602060405161029a81610f3b565b7f000000000000000000000000000000000000000000000000000000000000000081528181019586526040518096819263f17325e760e01b8352846004840152516024830152516040604483015260018060a01b0381511660648301526001600160401b03848201511660848301526040810151151560a4830152606081015160c483015260a061033b608083015160c060e4860152610124850190611101565b9101516101048301520381887f00000000000000000000000000000000000000000000000000000000000000006001600160a01b03165af19384156104005785946103c4575b5060209450604051928352848301526040820152817f7df3da9e2a967e6dc9bc9c0b77815e0c98d7f1cf4a70949d579b377ccfd8da8560603393a3604051908152f35b9093506020813d6020116103f8575b816103e060209383610fa3565b810103126103f45760209450519238610381565b8480fd5b3d91506103d3565b6040513d87823e3d90fd5b60405162461bcd60e51b815260206004820152601b60248201527f496e636f7272656374206e61746976652076616c75652073656e7400000000006044820152606490fd5b346104985761025e906104936040516323b872dd60e01b60208201523360248201523060448201528460648201526064815261048d608482610fa3565b86611577565b6101ad565b60405162461bcd60e51b815260206004820152602b60248201527f446f206e6f742073656e64206e61746976652076616c756520666f722045524360448201526a3230207061796d656e747360a81b6064820152608490fd5b60405162461bcd60e51b815260206004820152601760248201527f496e76616c6964206172626974657220616464726573730000000000000000006044820152606490fd5b60405162461bcd60e51b81526020600482015260126024820152710416d6f756e74206d757374206265203e20360741b6044820152606490fd5b8580fd5b8380fd5b5080fd5b50346100f95760203660031901126100f95760ff604060209260043581528084522054166040519015158152f35b611126565b50346100f957806003193601126100f9576040517f00000000000000000000000000000000000000000000000000000000000000006001600160a01b03168152602090f35b61116b565b50346100f957806003193601126100f9576100f56100e1611061565b50346100f95760403660031901126100f9576004356024356040516328c44a9960e21b8152826004820152838160248160018060a01b037f0000000000000000000000000000000000000000000000000000000000000000165afa908115610a51578491610a2f575b508284528360205261069760ff60408620541615611365565b60808101906001600160401b038251166109ea57602081019182517f0000000000000000000000000000000000000000000000000000000000000000036109a6576101208201926106f28451602080825183010191016113bd565b9360a085015115610961576020926001600160401b03926107cf60018060a01b03606089015116936107bd60808a0151916101006040519a8b998a988998633c84ae5b60e11b8a52606060048b0152835160648b01525160848a01528160408401511660a48a01528160608401511660c48a0152511660e488015260a081015161010488015260018060a01b0360c08201511661012488015260018060a01b0360e08201511661014488015201511515610164860152516101406101848601526101a4850190611101565b83810360031901602485015290611101565b88604483015203915afa908115610400578591610927575b50156108c357828452602084815260408520805460ff191660011790558101516001600160a01b0316806108ab5750838080806040850151335af161082a61145f565b5015610866576040905b0151916040519283527fae05ae2adcda5bd2e217af6ee62d0fa61cd588f87c5a34957f15cf317e88209f60203394a480f35b60405162461bcd60e51b815260206004820152601c60248201527f4e617469766520746f6b656e207472616e73666572206661696c6564000000006044820152606490fd5b906108be60409283830151903390611535565b610834565b60405162461bcd60e51b815260206004820152603660248201527f45524332305061796d656e7453746174656d656e743a20496e76616c696420666044820152753ab63334b63636b2b73a103b34b09030b93134ba32b960511b6064820152608490fd5b90506020813d602011610959575b8161094260209383610fa3565b810103126103f4576109539061123b565b386107e7565b3d9150610935565b60405162461bcd60e51b815260206004820152601d60248201527f5061796d656e742073746174656d656e7420697320696e6163746976650000006044820152606490fd5b606460405162461bcd60e51b815260206004820152602060248201527f496e76616c6964207061796d656e742073746174656d656e7420736368656d616044820152fd5b60405162461bcd60e51b815260206004820152601d60248201527f5061796d656e742073746174656d656e7420776173207265766f6b65640000006044820152606490fd5b610a4b91503d8086833e610a438183610fa3565b81019061128a565b3861067e565b6040513d86823e3d90fd5b50346100f957806003193601126100f957602060405160018152f35b50346100f95760603660031901126100f957600435906001600160401b0382116100f95761014060031983360301126100f95760405191610ab883610f6c565b8060040135835260248101356020840152610ad560448201610fc4565b6040840152610ae660648201610fc4565b6060840152610af760848201610fc4565b608084015260a481013560a0840152610b1260c48201610fdd565b60c0840152610b2360e48201610fdd565b60e08401526101048101358015158103610b9b576101008401526101248101356001600160401b038111610b9b57610b6091369101600401611043565b610120830152602435906001600160401b0382116100f9576020610b9184610b8b3660048701611043565b5061148f565b6040519015158152f35b8280fd5b905034610578576020366003190112610578576328c44a9960e21b815260048035908201819052907f00000000000000000000000000000000000000000000000000000000000000006001600160a01b0316908381602481855afa908115610a51578491610f21575b506020810151907f0000000000000000000000000000000000000000000000000000000000000000809203610edc5783855284602052610c4f60ff60408720541615611365565b6001600160401b03608082015116610e8d57610120610c79910151602080825183010191016113bd565b80519092906001600160a01b03163303610e485760a083015115610e035783855260208590526040808620805460ff19166001179055518591610cbb82610f3b565b85825282602083015260405193610cd185610f3b565b845260208401918252803b15610b9b57604051634692626760e01b8152935160048501529051805160248501526020015160448401528290606490829084905af18015610a5157610def575b5060208101516001600160a01b031680610dce57508280808060018060a01b038551166040860151905af1610d5061145f565b5015610d89575b516001600160a01b0316907f97b7635e6c869d69d35ad55e8dacd8f0884b5dc01c56755f24179f3ca8cb33b38380a380f35b60405162461bcd60e51b815260206004820152601a60248201527f4e617469766520746f6b656e20726566756e64206661696c65640000000000006044820152606490fd5b81516040830151610dea9290916001600160a01b031690611535565b610d57565b83610dfc91949294610fa3565b9138610d1d565b60405162461bcd60e51b815260206004820152601a60248201527f53746174656d656e7420616c726561647920696e6163746976650000000000006044820152606490fd5b60405162461bcd60e51b815260206004820152601960248201527f4f6e6c79207468652062757965722063616e2063616e63656c000000000000006044820152606490fd5b60405162461bcd60e51b815260206004820152602160248201527f5061796d656e742073746174656d656e7420616c7265616479207265766f6b656044820152601960fa1b6064820152608490fd5b60405162461bcd60e51b815260206004820152601f60248201527f496e76616c696420736368656d6120666f722063616e63656c6c6174696f6e006044820152606490fd5b610f3591503d8086833e610a438183610fa3565b38610c08565b604081019081106001600160401b03821117610f5657604052565b634e487b7160e01b600052604160045260246000fd5b61014081019081106001600160401b03821117610f5657604052565b60c081019081106001600160401b03821117610f5657604052565b90601f801991011681019081106001600160401b03821117610f5657604052565b35906001600160401b0382168203610fd857565b600080fd5b35906001600160a01b0382168203610fd857565b6001600160401b038111610f5657601f01601f191660200190565b92919261101882610ff1565b916110266040519384610fa3565b829481845281830111610fd8578281602093846000960137010152565b9080601f83011215610fd85781602061105e9335910161100c565b90565b60405190611070608083610fa3565b60538252722064656d616e642c626f6f6c2061637469766560681b6060837f616464726573732062757965722c6164647265737320746f6b656e2c75696e7460208201527f32353620616d6f756e742c6164647265737320617262697465722c627974657360408201520152565b60005b8381106110f15750506000910152565b81810151838201526020016110e1565b9060209161111a815180928185528580860191016110de565b601f01601f1916010190565b34610fd8576000366003190112610fd8576040517f00000000000000000000000000000000000000000000000000000000000000006001600160a01b03168152602090f35b34610fd8576000366003190112610fd85760206040517f00000000000000000000000000000000000000000000000000000000000000008152f35b604051906111b5608083610fa3565b60438252620c2e6d60eb1b6060837f6164647265737320746f6b656e2c2075696e74323536206d696e416d6f756e7460208201527f2c206164647265737320617262697465722c2062797465732064656d616e644860408201520152565b51906001600160401b0382168203610fd857565b51906001600160a01b0382168203610fd857565b51908115158203610fd857565b81601f82011215610fd857805161125e81610ff1565b9261126c6040519485610fa3565b81845260208284010111610fd85761105e91602080850191016110de565b602081830312610fd8578051906001600160401b038211610fd8570161014081830312610fd857604051916112be83610f6c565b81518352602082015160208401526112d860408301611213565b60408401526112e960608301611213565b60608401526112fa60808301611213565b608084015260a082015160a084015261131560c08301611227565b60c084015261132660e08301611227565b60e0840152611338610100830161123b565b6101008401526101208201516001600160401b038111610fd85761135c9201611248565b61012082015290565b1561136c57565b60405162461bcd60e51b815260206004820152602360248201527f5061796d656e7420616c726561647920636f6c6c65637465642f63616e63656c6044820152621b195960ea1b6064820152608490fd5b602081830312610fd8578051906001600160401b038211610fd8570160c081830312610fd857604051916113f083610f88565b6113f982611227565b835261140760208301611227565b60208401526040820151604084015261142260608301611227565b60608401526080820151916001600160401b038311610fd85761144c60a092611457948301611248565b60808501520161123b565b60a082015290565b3d1561148a573d9061147082610ff1565b9161147e6040519384610fa3565b82523d6000602084013e565b606090565b60208101517f000000000000000000000000000000000000000000000000000000000000000003611524576001600160401b03608082015116611524576001600160401b03606082015116801515908161152a575b50611524576101200151805160a0811061151d578160208061150c9360a095010191016113bd565b01511561151857600190565b600090565b5050600090565b50600090565b9050421015386114e4565b60405163a9059cbb60e01b60208201526001600160a01b03909216602483015260448083019390935291815261157591611570606483610fa3565b611577565b565b906000602091828151910182855af1156115d2576000513d6115c957506001600160a01b0381163b155b6115a85750565b635274afe760e01b60009081526001600160a01b0391909116600452602490fd5b600114156115a1565b6040513d6000823e3d90fdfea26469706673582212203a1e5ccd9cc6ca3b297137f43dad3aee0522f6472f9fe92ad14cbb4efa79518e64736f6c634300081c0033",
  "linkReferences": {},
  "deployedLinkReferences": {}
}