{
  "_format": "hh-sol-artifact-1",
  "contractName": "StringResultStatement",
  "sourceName": "contracts/StringResultStatement.sol",
  "abi": [
    {
      "inputs": [
        {
          "internalType": "address",
          "name": "easAddress",
          "type": "address"
        },
        {
          "internalType": "address",
          "name": "schemaRegistryAddress",
          "type": "address"
        }
      ],
      "stateMutability": "nonpayable",
      "type": "constructor"
    },
    {
      "anonymous": false,
      "inputs": [
        {
          "indexed": true,
          "internalType": "bytes32",
          "name": "uid",
          "type": "bytes32"
        },
        {
          "indexed": true,
          "internalType": "address",
          "name": "fulfiller",
          "type": "address"
        },
        {
          "indexed": true,
          "internalType": "bytes32",
          "name": "paymentStatementUID",
          "type": "bytes32"
        }
      ],
      "name": "ResultSubmitted",
      "type": "event"
    },
    {
      "inputs": [],
      "name": "ATTESTATION_SCHEMA",
      "outputs": [
        {
          "internalType": "bytes32",
          "name": "",
          "type": "bytes32"
        }
      ],
      "stateMutability": "view",
      "type": "function"
    },
    {
      "inputs": [],
      "name": "DEMAND_ABI",
      "outputs": [
        {
          "internalType": "string",
          "name": "",
          "type": "string"
        }
      ],
      "stateMutability": "view",
      "type": "function"
    },
    {
      "inputs": [],
      "name": "IS_REVOCABLE",
      "outputs": [
        {
          "internalType": "bool",
          "name": "",
          "type": "bool"
        }
      ],
      "stateMutability": "view",
      "type": "function"
    },
    {
      "inputs": [],
      "name": "SCHEMA_ABI",
      "outputs": [
        {
          "internalType": "string",
          "name": "",
          "type": "string"
        }
      ],
      "stateMutability": "view",
      "type": "function"
    },
    {
      "inputs": [],
      "name": "_ATTESTATION_SCHEMA",
      "outputs": [
        {
          "internalType": "bytes32",
          "name": "",
          "type": "bytes32"
        }
      ],
      "stateMutability": "view",
      "type": "function"
    },
    {
      "inputs": [],
      "name": "_eas",
      "outputs": [
        {
          "internalType": "contract IEAS",
          "name": "",
          "type": "address"
        }
      ],
      "stateMutability": "view",
      "type": "function"
    },
    {
      "inputs": [],
      "name": "_schemaRegistry",
      "outputs": [
        {
          "internalType": "contract ISchemaRegistry",
          "name": "",
          "type": "address"
        }
      ],
      "stateMutability": "view",
      "type": "function"
    },
    {
      "inputs": [
        {
          "components": [
            {
              "internalType": "bytes32",
              "name": "uid",
              "type": "bytes32"
            },
            {
              "internalType": "bytes32",
              "name": "schema",
              "type": "bytes32"
            },
            {
              "internalType": "uint64",
              "name": "time",
              "type": "uint64"
            },
            {
              "internalType": "uint64",
              "name": "expirationTime",
              "type": "uint64"
            },
            {
              "internalType": "uint64",
              "name": "revocationTime",
              "type": "uint64"
            },
            {
              "internalType": "bytes32",
              "name": "refUID",
              "type": "bytes32"
            },
            {
              "internalType": "address",
              "name": "recipient",
              "type": "address"
            },
            {
              "internalType": "address",
              "name": "attester",
              "type": "address"
            },
            {
              "internalType": "bool",
              "name": "revocable",
              "type": "bool"
            },
            {
              "internalType": "bytes",
              "name": "data",
              "type": "bytes"
            }
          ],
          "internalType": "struct Attestation",
          "name": "paymentStatement",
          "type": "tuple"
        },
        {
          "internalType": "bytes",
          "name": "demand",
          "type": "bytes"
        },
        {
          "internalType": "bytes32",
          "name": "fulfillmentUID",
          "type": "bytes32"
        }
      ],
      "name": "checkFulfillment",
      "outputs": [
        {
          "internalType": "bool",
          "name": "",
          "type": "bool"
        }
      ],
      "stateMutability": "view",
      "type": "function"
    },
    {
      "inputs": [],
      "name": "eas",
      "outputs": [
        {
          "internalType": "contract IEAS",
          "name": "",
          "type": "address"
        }
      ],
      "stateMutability": "view",
      "type": "function"
    },
    {
      "inputs": [],
      "name": "getDemandAbi",
      "outputs": [
        {
          "internalType": "string",
          "name": "",
          "type": "string"
        }
      ],
      "stateMutability": "pure",
      "type": "function"
    },
    {
      "inputs": [],
      "name": "getSchemaAbi",
      "outputs": [
        {
          "internalType": "string",
          "name": "",
          "type": "string"
        }
      ],
      "stateMutability": "pure",
      "type": "function"
    },
    {
      "inputs": [
        {
          "internalType": "string",
          "name": "result",
          "type": "string"
        },
        {
          "internalType": "bytes32",
          "name": "paymentStatementUID",
          "type": "bytes32"
        }
      ],
      "name": "makeStatement",
      "outputs": [
        {
          "internalType": "bytes32",
          "name": "uid",
          "type": "bytes32"
        }
      ],
      "stateMutability": "nonpayable",
      "type": "function"
    }
  ],
  "bytecode": "0x60e0806040523461017257604081610d60803803809161001f82856101b9565b8339810103126101725761003e6020610037836101dc565b92016101dc565b6001600160a01b039182166080521660a081905260408051919082016001600160401b038111838210176101a357604052601f82527f616464726573732066756c66696c6c65722c737472696e6720726573756c740060208301526040518092630c1af44f60e31b82526060600483015280519081606484015260005b82811061018b5750509181600060848286838360209984010152836024830152836044830152601f801991011681010301925af190811561017f57600091610148575b5060c052604051610b6f90816101f182396080518181816102900152818161066e015261080a015260a05181610513015260c0518181816101e2015281816106b501526108570152f35b90506020813d602011610177575b81610163602093836101b9565b810103126101725751386100fe565b600080fd5b3d9150610156565b6040513d6000823e3d90fd5b602082820181015160848884010152869450016100bb565b634e487b7160e01b600052604160045260246000fd5b601f909101601f19168101906001600160401b038211908210176101a357604052565b51906001600160a01b03821682036101725756fe608080604052600436101561001357600080fd5b60003560e01c90816313da12b314610563575080632083d47f1461054757806330f97eea146103d3578063344bd2d9146105475780635bf2f20d146105425780636622a3611461054257806376182c8e146104fd57806379095cb6146103d85780638150864d146103d357806398e756b6146100dc578063f0bebf03146100a35763fdc5b3f4146100a357600080fd5b346100d75760003660031901126100d7576100d36100bf610747565b604051918291602083526020830190610633565b0390f35b600080fd5b346100d75760403660031901126100d7576004356001600160401b0381116100d757366023820112156100d7578060040135906001600160401b0382116100d75736602483830101116100d757602435908215610395578115610350576080610180918460249560405196879333602086015260408086015282606086015201848401376000838284010152601f801991011681010301601f198101845283610599565b6040519160c083018381106001600160401b0382111761033a5760405233835260006020840152600060408401528160608401526080830152600060a083015260405160408101908082106001600160401b0383111761033a576020916040527f000000000000000000000000000000000000000000000000000000000000000081528181019384526040518094819263f17325e760e01b8352846004840152516024830152516040604483015260018060a01b0381511660648301526001600160401b03848201511660848301526040810151151560a4830152606081015160c483015260a0610281608083015160c060e4860152610124850190610633565b910151610104830152038160007f00000000000000000000000000000000000000000000000000000000000000006001600160a01b03165af1801561032e576000906102fb575b602092506040519133827f78842de91feb7c01fdd3c6ba92ffa4a4d9992388d8718b740b16757bb47f8d5a600080a48152f35b506020823d602011610326575b8161031560209383610599565b810103126100d757602091516102c8565b3d9150610308565b6040513d6000823e3d90fd5b634e487b7160e01b600052604160045260246000fd5b60405162461bcd60e51b815260206004820152601d60248201527f496e76616c6964207061796d656e742073746174656d656e74205549440000006044820152606490fd5b60405162461bcd60e51b8152602060048201526016602482015275526573756c742063616e6e6f7420626520656d70747960501b6044820152606490fd5b610658565b346100d75760603660031901126100d7576004356001600160401b0381116100d75761014060031982360301126100d757604051906104168261057d565b8060040135825260248101356020830152610433604482016106d8565b6040830152610444606482016106d8565b6060830152610455608482016106d8565b608083015260a481013560a083015261047060c482016106ec565b60c083015261048160e482016106ec565b60e083015261010481013580151581036100d757610100830152610124810135906001600160401b0382116100d75760046104bf9236920101610700565b6101208201526024356001600160401b0381116100d7576020916104ea6104f3923690600401610700565b604435916107ed565b6040519015158152f35b346100d75760003660031901126100d7576040517f00000000000000000000000000000000000000000000000000000000000000006001600160a01b03168152602090f35b61069d565b346100d75760003660031901126100d7576100d36100bf6105d5565b346100d75760003660031901126100d75780600060209252f35b61014081019081106001600160401b0382111761033a57604052565b90601f801991011681019081106001600160401b0382111761033a57604052565b6001600160401b03811161033a57601f01601f191660200190565b604051906105e4604083610599565b601f82527f616464726573732066756c66696c6c65722c737472696e6720726573756c74006020830152565b60005b8381106106235750506000910152565b8181015183820152602001610613565b9060209161064c81518092818552858086019101610610565b601f01601f1916010190565b346100d75760003660031901126100d7576040517f00000000000000000000000000000000000000000000000000000000000000006001600160a01b03168152602090f35b346100d75760003660031901126100d75760206040517f00000000000000000000000000000000000000000000000000000000000000008152f35b35906001600160401b03821682036100d757565b35906001600160a01b03821682036100d757565b81601f820112156100d757803590610717826105ba565b926107256040519485610599565b828452602083830101116100d757816000926020809301838601378301015290565b60405190610756604083610599565b600c82526b737472696e6720717565727960a01b6020830152565b51906001600160401b03821682036100d757565b51906001600160a01b03821682036100d757565b909291926107a6816105ba565b916107b46040519384610599565b8294828452828201116100d75760206107ce930190610610565b565b9080601f830112156100d75781516107ea92602001610799565b90565b6040516328c44a9960e21b815260048101939093526000836024817f00000000000000000000000000000000000000000000000000000000000000006001600160a01b03165afa92831561032e57600093610936575b5060a083015190510361092f5760208201517f00000000000000000000000000000000000000000000000000000000000000000361092f576001600160401b0360808301511661092f5780518101906020818303126100d7576020810151916001600160401b0383116100d7576108c19260208092019201016107d0565b610120820151805181016040828203126100d75760208201516001600160a01b03811692908390036100d7576040810151916001600160401b0383116100d7576109129260208092019201016107d0565b60c0909301516001600160a01b03160361092f576107ea91610a73565b5050600090565b9290923d8083833e6109488183610599565b810190602081830312610a44578051906001600160401b038211610a4857019161014083830312610a4157604051926109808461057d565b805184526020810151602085015261099a60408201610771565b60408501526109ab60608201610771565b60608501526109bc60808201610771565b608085015260a081015160a08501526109d760c08201610785565b60c08501526109e860e08201610785565b60e08501526101008101518015158103610a4457610100850152610120810151906001600160401b038211610a4457019082601f83011215610a4157508051610a349291602001610799565b6101208201529138610843565b80fd5b8280fd5b8380fd5b908151811015610a5d570160200190565b634e487b7160e01b600052603260045260246000fd5b805182510361092f5760005b8251811015610b3157610a928184610a4c565b516001600160f81b0319811690606160f81b82101580610b23575b610ae9575b506001600160f81b0319610ac68385610a4c565b51166001600160f81b031990911603610ae157600101610a7f565b505050600090565b60f81c601f1901905060ff8111610b0d5760f81b6001600160f81b03191638610ab2565b634e487b7160e01b600052601160045260246000fd5b50603d60f91b821115610aad565b50505060019056fea264697066735822122068280cf383e320df734d4868c23d1a19ab6016352eda50a26625413696c3236464736f6c634300081c0033",
  "linkReferences": {},
  "deployedLinkReferences": {}
}