{
  "_format": "hh-sol-artifact-1",
  "contractName": "ZKPValidator",
  "sourceName": "contracts/ZKPValidator.sol",
  "abi": [
    {
      "inputs": [
        {
          "internalType": "address",
          "name": "easAddress",
          "type": "address"
        },
        {
          "internalType": "address",
          "name": "schemaRegistryAddress",
          "type": "address"
        },
        {
          "internalType": "address",
          "name": "verifierAddr",
          "type": "address"
        },
        {
          "internalType": "bytes32",
          "name": "_answerStatementSchemaUID",
          "type": "bytes32"
        }
      ],
      "stateMutability": "nonpayable",
      "type": "constructor"
    },
    {
      "anonymous": false,
      "inputs": [
        {
          "indexed": true,
          "internalType": "bytes32",
          "name": "validationUID",
          "type": "bytes32"
        },
        {
          "indexed": true,
          "internalType": "bytes32",
          "name": "resultUID",
          "type": "bytes32"
        },
        {
          "indexed": false,
          "internalType": "bool",
          "name": "isValid",
          "type": "bool"
        }
      ],
      "name": "ZKPValidationCreated",
      "type": "event"
    },
    {
      "inputs": [],
      "name": "ATTESTATION_SCHEMA",
      "outputs": [
        {
          "internalType": "bytes32",
          "name": "",
          "type": "bytes32"
        }
      ],
      "stateMutability": "view",
      "type": "function"
    },
    {
      "inputs": [],
      "name": "IS_REVOCABLE",
      "outputs": [
        {
          "internalType": "bool",
          "name": "",
          "type": "bool"
        }
      ],
      "stateMutability": "view",
      "type": "function"
    },
    {
      "inputs": [],
      "name": "SCHEMA_ABI",
      "outputs": [
        {
          "internalType": "string",
          "name": "",
          "type": "string"
        }
      ],
      "stateMutability": "view",
      "type": "function"
    },
    {
      "inputs": [],
      "name": "_ZKP_VALID_SCHEMA",
      "outputs": [
        {
          "internalType": "bytes32",
          "name": "",
          "type": "bytes32"
        }
      ],
      "stateMutability": "view",
      "type": "function"
    },
    {
      "inputs": [],
      "name": "_eas",
      "outputs": [
        {
          "internalType": "contract IEAS",
          "name": "",
          "type": "address"
        }
      ],
      "stateMutability": "view",
      "type": "function"
    },
    {
      "inputs": [],
      "name": "_schemaRegistry",
      "outputs": [
        {
          "internalType": "contract ISchemaRegistry",
          "name": "",
          "type": "address"
        }
      ],
      "stateMutability": "view",
      "type": "function"
    },
    {
      "inputs": [],
      "name": "answerStatementSchemaUID",
      "outputs": [
        {
          "internalType": "bytes32",
          "name": "",
          "type": "bytes32"
        }
      ],
      "stateMutability": "view",
      "type": "function"
    },
    {
      "inputs": [
        {
          "components": [
            {
              "internalType": "bytes32",
              "name": "uid",
              "type": "bytes32"
            },
            {
              "internalType": "bytes32",
              "name": "schema",
              "type": "bytes32"
            },
            {
              "internalType": "uint64",
              "name": "time",
              "type": "uint64"
            },
            {
              "internalType": "uint64",
              "name": "expirationTime",
              "type": "uint64"
            },
            {
              "internalType": "uint64",
              "name": "revocationTime",
              "type": "uint64"
            },
            {
              "internalType": "bytes32",
              "name": "refUID",
              "type": "bytes32"
            },
            {
              "internalType": "address",
              "name": "recipient",
              "type": "address"
            },
            {
              "internalType": "address",
              "name": "attester",
              "type": "address"
            },
            {
              "internalType": "bool",
              "name": "revocable",
              "type": "bool"
            },
            {
              "internalType": "bytes",
              "name": "data",
              "type": "bytes"
            }
          ],
          "internalType": "struct Attestation",
          "name": "paymentStatement",
          "type": "tuple"
        },
        {
          "internalType": "bytes",
          "name": "",
          "type": "bytes"
        },
        {
          "internalType": "bytes32",
          "name": "fulfillmentUID",
          "type": "bytes32"
        }
      ],
      "name": "checkFulfillment",
      "outputs": [
        {
          "internalType": "bool",
          "name": "",
          "type": "bool"
        }
      ],
      "stateMutability": "view",
      "type": "function"
    },
    {
      "inputs": [
        {
          "components": [
            {
              "internalType": "bytes32",
              "name": "uid",
              "type": "bytes32"
            },
            {
              "internalType": "bytes32",
              "name": "schema",
              "type": "bytes32"
            },
            {
              "internalType": "uint64",
              "name": "time",
              "type": "uint64"
            },
            {
              "internalType": "uint64",
              "name": "expirationTime",
              "type": "uint64"
            },
            {
              "internalType": "uint64",
              "name": "revocationTime",
              "type": "uint64"
            },
            {
              "internalType": "bytes32",
              "name": "refUID",
              "type": "bytes32"
            },
            {
              "internalType": "address",
              "name": "recipient",
              "type": "address"
            },
            {
              "internalType": "address",
              "name": "attester",
              "type": "address"
            },
            {
              "internalType": "bool",
              "name": "revocable",
              "type": "bool"
            },
            {
              "internalType": "bytes",
              "name": "data",
              "type": "bytes"
            }
          ],
          "internalType": "struct Attestation",
          "name": "statement",
          "type": "tuple"
        },
        {
          "internalType": "bytes",
          "name": "",
          "type": "bytes"
        },
        {
          "internalType": "bytes32",
          "name": "",
          "type": "bytes32"
        }
      ],
      "name": "checkStatement",
      "outputs": [
        {
          "internalType": "bool",
          "name": "",
          "type": "bool"
        }
      ],
      "stateMutability": "view",
      "type": "function"
    },
    {
      "inputs": [],
      "name": "eas",
      "outputs": [
        {
          "internalType": "contract IEAS",
          "name": "",
          "type": "address"
        }
      ],
      "stateMutability": "view",
      "type": "function"
    },
    {
      "inputs": [],
      "name": "getDemandAbi",
      "outputs": [
        {
          "internalType": "string",
          "name": "",
          "type": "string"
        }
      ],
      "stateMutability": "pure",
      "type": "function"
    },
    {
      "inputs": [],
      "name": "getSchemaAbi",
      "outputs": [
        {
          "internalType": "string",
          "name": "",
          "type": "string"
        }
      ],
      "stateMutability": "pure",
      "type": "function"
    },
    {
      "inputs": [
        {
          "internalType": "bytes32",
          "name": "resultUID",
          "type": "bytes32"
        }
      ],
      "name": "validateZKP",
      "outputs": [
        {
          "internalType": "bytes32",
          "name": "validationUID",
          "type": "bytes32"
        }
      ],
      "stateMutability": "nonpayable",
      "type": "function"
    },
    {
      "inputs": [],
      "name": "zkpVerifier",
      "outputs": [
        {
          "internalType": "contract Groth16Verifier",
          "name": "",
          "type": "address"
        }
      ],
      "stateMutability": "view",
      "type": "function"
    }
  ],
  "bytecode": "0x61012080604052346101c0576080816111a88038038091610020828561029b565b8339810103126101c057610033816102be565b90610040602082016102be565b606061004e604084016102be565b9201516001600160a01b0393841660805290831660a052911680156102565781156102075760c05260e05260a05160408051916001600160a01b03169082016001600160401b038111838210176101f157604052600f82526e0626f6f6c20697356616c69645a4b5608c1b60208301526040518092630c1af44f60e31b82526060600483015280519081606484015260005b8281106101d95750509181600060848286838360209984010152836024830152836044830152601f801991011681010301925af19081156101cd57600091610196575b5061010052604051610ed590816102d3823960805181818161015301528181610a490152610d37015260a051816106d6015260c05181818161036e015261071b015260e05181818161019c01526107c601526101005181818161042101528181610a9001528181610aba0152610d800152f35b90506020813d6020116101c5575b816101b16020938361029b565b810103126101c0575138610123565b600080fd5b3d91506101a4565b6040513d6000823e3d90fd5b602082820181015160848884010152869450016100e0565b634e487b7160e01b600052604160045260246000fd5b60405162461bcd60e51b815260206004820152602160248201527f416e7377657253746174656d656e7420536368656d6120554944206e656564656044820152601960fa1b6064820152608490fd5b60405162461bcd60e51b815260206004820152601a60248201527f5a4b5056657269666965722061646472657373206e65656465640000000000006044820152606490fd5b601f909101601f19168101906001600160401b038211908210176101f157604052565b51906001600160a01b03821682036101c05756fe608080604052600436101561001357600080fd5b60003560e01c90816311e57f77146107b0575080631272ff8b1461079657806313da12b31461077a5780632083d47f1461074a57806330f97eea146100ff578063344bd2d91461074a5780635bf2f20d146100fa5780636aebbd661461070557806376182c8e146106c057806378a59b911461012957806379095cb6146101045780638150864d146100ff578063c28feece146100fa5763f0bebf03146100b957600080fd5b346100f55760003660031901126100f55760405160206100d98183610805565b600082526100f1604051928284938452830190610a0e565b0390f35b600080fd5b610a78565b610a33565b346100f557602061011f610117366108b0565b919050610d19565b6040519015158152f35b346100f55760203660031901126100f5576040516328c44a9960e21b8152600480359082018190527f00000000000000000000000000000000000000000000000000000000000000006001600160a01b031691600081602481865afa9081156106b457600091610691575b5060208101517f000000000000000000000000000000000000000000000000000000000000000003610640576001600160401b036080820151166105fb5761012001519081518201926102a083602086019503126100f55760208301516001600160a01b03811691908290036100f55760408401516001600160401b0381116100f55785602061022692870101610c81565b506102346101208501610c9e565b506102426101408501610c9e565b50610251856101608601610cac565b92856101bf860112156100f55760409182519561026e8488610805565b6102208101878982116100f5578990866101a08501915b8483106105e05750505061029891610cac565b976102808201516001600160401b0381116100f5578160206102bc92850101610c81565b506102a0820151916001600160401b0383116100f5576102df9201602001610c81565b508251966101006102f0818a610805565b36893760005b600881101561031057600190818160051b8b0152016102f6565b5087908761032e865198636490cd3d60e11b8a5260048a0190610cf1565b60008660448a015b600283106105c157505050506103509060c4880190610cf1565b600061010487015b600882106105ab575060209150869050610204817f00000000000000000000000000000000000000000000000000000000000000006001600160a01b03165afa9485156105a057600095610564575b50825194151594856020820152602081526103c28482610805565b83519460c086018681106001600160401b0382111761054e5785528552600060208601526000848601528260608601526080850152600060a0850152825193838501918583106001600160401b0384111761054e5760009560209386527f00000000000000000000000000000000000000000000000000000000000000008152838101928352855196878094819363f17325e760e01b83528760048401525160248301525188604483015260018060a01b0381511660648301526001600160401b038782015116608483015288810151151560a4830152606081015160c483015260a06104bf608083015160c060e4860152610124850190610a0e565b91015161010483015203925af19283156105435760009361050e575b50827f4418996000627e87cffe5579c16cb6514c9092a8e7b037543f06b0ad948c4d9d602080968551908152a351908152f35b92506020833d60201161053b575b8161052960209383610805565b810103126100f55791519160206104db565b3d915061051c565b82513d6000823e3d90fd5b634e487b7160e01b600052604160045260246000fd5b9094506020813d602011610598575b8161058060209383610805565b810103126100f55761059190610b4f565b93856103a7565b3d9150610573565b83513d6000823e3d90fd5b6020806001928551815201930191019091610358565b600191816105d26020938751610cf1565b019301910190918790610336565b6105ee839460209394610cac565b8152019101868b92610285565b60405162461bcd60e51b815260206004820152601c60248201527f5a4b5056616c696461746f723a20416e73776572207265766f6b6564000000006044820152606490fd5b60405162461bcd60e51b815260206004820152602360248201527f5a4b5056616c696461746f723a20496e76616c696420416e7377657220736368604482015262656d6160e81b6064820152608490fd5b6106ae91503d806000833e6106a68183610805565b810190610b93565b83610194565b6040513d6000823e3d90fd5b346100f55760003660031901126100f5576040517f00000000000000000000000000000000000000000000000000000000000000006001600160a01b03168152602090f35b346100f55760003660031901126100f5576040517f00000000000000000000000000000000000000000000000000000000000000006001600160a01b03168152602090f35b346100f55760003660031901126100f5576100f16107666109be565b604051918291602083526020830190610a0e565b346100f55760003660031901126100f557602060405160008152f35b346100f557602061011f6107a9366108b0565b5050610ab3565b346100f55760003660031901126100f5576020907f00000000000000000000000000000000000000000000000000000000000000008152f35b61014081019081106001600160401b0382111761054e57604052565b90601f801991011681019081106001600160401b0382111761054e57604052565b35906001600160401b03821682036100f557565b35906001600160a01b03821682036100f557565b6001600160401b03811161054e57601f01601f191660200190565b81601f820112156100f5578035906108808261084e565b9261088e6040519485610805565b828452602083830101116100f557816000926020809301838601378301015290565b9060606003198301126100f5576004356001600160401b0381116100f55761014081840360031901126100f557604051906108ea826107e9565b806004013582526024810135602083015261090760448201610826565b604083015261091860648201610826565b606083015261092960848201610826565b608083015260a481013560a083015261094460c4820161083a565b60c083015261095560e4820161083a565b60e083015261010481013580151581036100f5576101008301526101248101356001600160401b0381116100f55760048591610992930101610869565b61012082015291602435906001600160401b0382116100f5576109b791600401610869565b9060443590565b604051906109cd604083610805565b600f82526e0626f6f6c20697356616c69645a4b5608c1b6020830152565b60005b8381106109fe5750506000910152565b81810151838201526020016109ee565b90602091610a27815180928185528580860191016109eb565b601f01601f1916010190565b346100f55760003660031901126100f5576040517f00000000000000000000000000000000000000000000000000000000000000006001600160a01b03168152602090f35b346100f55760003660031901126100f55760206040517f00000000000000000000000000000000000000000000000000000000000000008152f35b60208101517f000000000000000000000000000000000000000000000000000000000000000003610b21576001600160401b03608082015116610b2157606001516001600160401b03168015159081610b16575b50610b1157600190565b600090565b905042101538610b07565b50600090565b51906001600160401b03821682036100f557565b51906001600160a01b03821682036100f557565b519081151582036100f557565b90929192610b698161084e565b91610b776040519384610805565b8294828452828201116100f5576020610b919301906109eb565b565b6020818303126100f5578051906001600160401b0382116100f5570190610140828203126100f55760405191610bc8836107e9565b8051835260208101516020840152610be260408201610b27565b6040840152610bf360608201610b27565b6060840152610c0460808201610b27565b608084015260a081015160a0840152610c1f60c08201610b3b565b60c0840152610c3060e08201610b3b565b60e0840152610c426101008201610b4f565b610100840152610120810151906001600160401b0382116100f557019080601f830112156100f5578151610c7892602001610b5c565b61012082015290565b9080601f830112156100f5578151610c9b92602001610b5c565b90565b519060ff821682036100f557565b9080601f830112156100f5576040805192610cc78285610805565b839181019283116100f557905b828210610ce15750505090565b8151815260209182019101610cd4565b906000905b60028210610d0357505050565b6020806001928551815201930191019091610cf6565b908015610e98576040516328c44a9960e21b815260048101919091527f00000000000000000000000000000000000000000000000000000000000000006001600160a01b031690600081602481855afa9081156106b457600091610e7f575b5060208101517f000000000000000000000000000000000000000000000000000000000000000003610e62576001600160401b03608082015116610e62576001600160401b036060820151168015159081610e74575b50610e6257610120810151805160208103610e6a5781602091810103126100f5576020610dfb9101610b4f565b15610e625760a001518015610e62576000906024604051809481936328c44a9960e21b835260048301525afa80156106b45760a091600091610e47575b500151905103610b1157600190565b610e5c91503d806000833e6106a68183610805565b38610e38565b505050600090565b5050505050600090565b905042101538610dce565b610e92913d8091833e6106a68183610805565b38610d78565b505060009056fea26469706673582212200c56136860e0e43f2b7b5ff306aa343f85dc365abd4951dd8770015071d8237864736f6c634300081c0033",
  "linkReferences": {},
  "deployedLinkReferences": {}
}